{
  "_format": "hh-sol-artifact-1",
  "contractName": "CommunityKeys",
  "sourceName": "contracts/CommunityKeys.sol",
  "abi": [
    {
      "inputs": [],
      "stateMutability": "nonpayable",
      "type": "constructor"
    },
    {
      "anonymous": false,
      "inputs": [
        {
          "indexed": true,
          "internalType": "address",
          "name": "_safe",
          "type": "address"
        },
        {
          "indexed": true,
          "internalType": "address",
          "name": "_owner",
          "type": "address"
        },
        {
          "indexed": false,
          "internalType": "uint256",
          "name": "_fee",
          "type": "uint256"
        }
      ],
      "name": "CommunityCreated",
      "type": "event"
    },
    {
      "anonymous": false,
      "inputs": [
        {
          "indexed": true,
          "internalType": "address",
          "name": "_key",
          "type": "address"
        },
        {
          "indexed": true,
          "internalType": "address",
          "name": "_buyer",
          "type": "address"
        },
        {
          "indexed": false,
          "internalType": "uint256",
          "name": "_amount_of_keys",
          "type": "uint256"
        },
        {
          "indexed": false,
          "internalType": "uint256",
          "name": "_ethSpent",
          "type": "uint256"
        },
        {
          "indexed": false,
          "internalType": "uint256",
          "name": "_ownerFee",
          "type": "uint256"
        }
      ],
      "name": "CommunityKeyBought",
      "type": "event"
    },
    {
      "anonymous": false,
      "inputs": [
        {
          "indexed": true,
          "internalType": "address",
          "name": "_key",
          "type": "address"
        },
        {
          "indexed": true,
          "internalType": "address",
          "name": "_buyer",
          "type": "address"
        },
        {
          "indexed": false,
          "internalType": "uint256",
          "name": "_amount_of_keys",
          "type": "uint256"
        },
        {
          "indexed": false,
          "internalType": "uint256",
          "name": "_ethSpent",
          "type": "uint256"
        },
        {
          "indexed": false,
          "internalType": "uint256",
          "name": "_ownerFee",
          "type": "uint256"
        }
      ],
      "name": "CommunityKeySold",
      "type": "event"
    },
    {
      "inputs": [
        {
          "internalType": "address",
          "name": "keysSubject",
          "type": "address"
        },
        {
          "internalType": "uint256",
          "name": "amount",
          "type": "uint256"
        }
      ],
      "name": "buyKey",
      "outputs": [],
      "stateMutability": "payable",
      "type": "function"
    },
    {
      "inputs": [
        {
          "internalType": "address",
          "name": "",
          "type": "address"
        },
        {
          "internalType": "address",
          "name": "",
          "type": "address"
        }
      ],
      "name": "communityKeys",
      "outputs": [
        {
          "internalType": "uint256",
          "name": "",
          "type": "uint256"
        }
      ],
      "stateMutability": "view",
      "type": "function"
    },
    {
      "inputs": [
        {
          "internalType": "address",
          "name": "",
          "type": "address"
        }
      ],
      "name": "communityKeysSupply",
      "outputs": [
        {
          "internalType": "uint256",
          "name": "",
          "type": "uint256"
        }
      ],
      "stateMutability": "view",
      "type": "function"
    },
    {
      "inputs": [
        {
          "internalType": "address",
          "name": "",
          "type": "address"
        }
      ],
      "name": "fees",
      "outputs": [
        {
          "internalType": "uint256",
          "name": "",
          "type": "uint256"
        }
      ],
      "stateMutability": "view",
      "type": "function"
    },
    {
      "inputs": [
        {
          "internalType": "address",
          "name": "keysSubject",
          "type": "address"
        },
        {
          "internalType": "uint256",
          "name": "amount",
          "type": "uint256"
        }
      ],
      "name": "getBuyPrice",
      "outputs": [
        {
          "internalType": "uint256",
          "name": "",
          "type": "uint256"
        }
      ],
      "stateMutability": "view",
      "type": "function"
    },
    {
      "inputs": [
        {
          "internalType": "address",
          "name": "keysSubject",
          "type": "address"
        },
        {
          "internalType": "uint256",
          "name": "amount",
          "type": "uint256"
        }
      ],
      "name": "getBuyPriceAfterFee",
      "outputs": [
        {
          "internalType": "uint256",
          "name": "",
          "type": "uint256"
        }
      ],
      "stateMutability": "view",
      "type": "function"
    },
    {
      "inputs": [
        {
          "internalType": "uint256",
          "name": "supply",
          "type": "uint256"
        },
        {
          "internalType": "uint256",
          "name": "amount",
          "type": "uint256"
        }
      ],
      "name": "getPrice",
      "outputs": [
        {
          "internalType": "uint256",
          "name": "",
          "type": "uint256"
        }
      ],
      "stateMutability": "pure",
      "type": "function"
    },
    {
      "inputs": [
        {
          "internalType": "address",
          "name": "keysSubject",
          "type": "address"
        },
        {
          "internalType": "uint256",
          "name": "amount",
          "type": "uint256"
        }
      ],
      "name": "getSellPrice",
      "outputs": [
        {
          "internalType": "uint256",
          "name": "",
          "type": "uint256"
        }
      ],
      "stateMutability": "view",
      "type": "function"
    },
    {
      "inputs": [
        {
          "internalType": "address",
          "name": "keysSubject",
          "type": "address"
        },
        {
          "internalType": "uint256",
          "name": "amount",
          "type": "uint256"
        }
      ],
      "name": "getSellPriceAfterFee",
      "outputs": [
        {
          "internalType": "uint256",
          "name": "",
          "type": "uint256"
        }
      ],
      "stateMutability": "view",
      "type": "function"
    },
    {
      "inputs": [
        {
          "internalType": "address",
          "name": "",
          "type": "address"
        }
      ],
      "name": "safes",
      "outputs": [
        {
          "internalType": "address",
          "name": "",
          "type": "address"
        }
      ],
      "stateMutability": "view",
      "type": "function"
    },
    {
      "inputs": [
        {
          "internalType": "address",
          "name": "keysSubject",
          "type": "address"
        },
        {
          "internalType": "uint256",
          "name": "amount",
          "type": "uint256"
        }
      ],
      "name": "sellKeys",
      "outputs": [],
      "stateMutability": "payable",
      "type": "function"
    }
  ],
  "bytecode": "0x608060405234801561001057600080fd5b50611533806100206000396000f3fe60806040526004361061009c5760003560e01c80637e0cf35b116100645780637e0cf35b146101d25780639111ac89146101ee5780639ae717811461020a578063e1ccd6e914610247578063f47f43fd14610284578063faaebd21146102c15761009c565b80630f026f6d146100a15780632267a89c146100de578063227b3ea01461011b5780634635256e146101585780635cf4ee9114610195575b600080fd5b3480156100ad57600080fd5b506100c860048036038101906100c39190610f91565b6102fe565b6040516100d59190610fe0565b60405180910390f35b3480156100ea57600080fd5b5061010560048036038101906101009190610f91565b61038b565b6040516101129190610fe0565b60405180910390f35b34801561012757600080fd5b50610142600480360381019061013d9190610ffb565b610418565b60405161014f9190610fe0565b60405180910390f35b34801561016457600080fd5b5061017f600480360381019061017a9190610f91565b61043d565b60405161018c9190610fe0565b60405180910390f35b3480156101a157600080fd5b506101bc60048036038101906101b7919061103b565b610490565b6040516101c99190610fe0565b60405180910390f35b6101ec60048036038101906101e79190610f91565b6105c5565b005b61020860048036038101906102039190610f91565b610983565b005b34801561021657600080fd5b50610231600480360381019061022c9190610f91565b610e37565b60405161023e9190610fe0565b60405180910390f35b34801561025357600080fd5b5061026e6004803603810190610269919061107b565b610e95565b60405161027b9190610fe0565b60405180910390f35b34801561029057600080fd5b506102ab60048036038101906102a6919061107b565b610ead565b6040516102b891906110b7565b60405180910390f35b3480156102cd57600080fd5b506102e860048036038101906102e3919061107b565b610ee0565b6040516102f59190610fe0565b60405180910390f35b60008061030b848461043d565b90506000600260008673ffffffffffffffffffffffffffffffffffffffff1673ffffffffffffffffffffffffffffffffffffffff1681526020019081526020016000205490506000670de0b6b3a764000082846103689190611101565b6103729190611172565b9050808361038091906111a3565b935050505092915050565b6000806103988484610e37565b90506000600260008673ffffffffffffffffffffffffffffffffffffffff1673ffffffffffffffffffffffffffffffffffffffff1681526020019081526020016000205490506000670de0b6b3a764000082846103f59190611101565b6103ff9190611172565b9050808361040d91906111d7565b935050505092915050565b6000602052816000526040600020602052806000526040600020600091509150505481565b6000610488600160008573ffffffffffffffffffffffffffffffffffffffff1673ffffffffffffffffffffffffffffffffffffffff1681526020019081526020016000205483610490565b905092915050565b600080600084146104f2576006600180866104ab91906111d7565b60026104b79190611101565b6104c191906111a3565b856001876104cf91906111d7565b6104d99190611101565b6104e39190611101565b6104ed9190611172565b6104f5565b60005b9050600080851480156105085750600184145b610584576006600180868861051d91906111a3565b61052791906111d7565b60026105339190611101565b61053d91906111a3565b858761054991906111a3565b6001878961055791906111a3565b61056191906111d7565b61056b9190611101565b6105759190611101565b61057f9190611172565b610587565b60005b90506000828261059791906111d7565b9050613e80670de0b6b3a7640000826105b09190611101565b6105ba9190611172565b935050505092915050565b6000600160008473ffffffffffffffffffffffffffffffffffffffff1673ffffffffffffffffffffffffffffffffffffffff1681526020019081526020016000205490506000810361064c576040517f08c379a000000000000000000000000000000000000000000000000000000000815260040161064390611268565b60405180910390fd5b60006106588284610490565b90506000600260008673ffffffffffffffffffffffffffffffffffffffff1673ffffffffffffffffffffffffffffffffffffffff1681526020019081526020016000205490506000670de0b6b3a764000082846106b59190611101565b6106bf9190611172565b905080836106cd91906111a3565b34101561070f576040517f08c379a0000000000000000000000000000000000000000000000000000000008152600401610706906112d4565b60405180910390fd5b6000808773ffffffffffffffffffffffffffffffffffffffff1673ffffffffffffffffffffffffffffffffffffffff16815260200190815260200160002060003373ffffffffffffffffffffffffffffffffffffffff1673ffffffffffffffffffffffffffffffffffffffff168152602001908152602001600020600081548092919061079b906112f4565b9190505550600160008773ffffffffffffffffffffffffffffffffffffffff1673ffffffffffffffffffffffffffffffffffffffff16815260200190815260200160002060008154809291906107f0906112f4565b91905055503373ffffffffffffffffffffffffffffffffffffffff168673ffffffffffffffffffffffffffffffffffffffff167f4b38d3e57aeb26fb68e074cb2f26fae57d4951f6b9ac4b7cea10ff2d1777a22a87848761085191906111a3565b856040516108619392919061133c565b60405180910390a36000600360008873ffffffffffffffffffffffffffffffffffffffff1673ffffffffffffffffffffffffffffffffffffffff16815260200190815260200160002060009054906101000a900473ffffffffffffffffffffffffffffffffffffffff16905060008173ffffffffffffffffffffffffffffffffffffffff16836040516108f3906113a4565b60006040518083038185875af1925050503d8060008114610930576040519150601f19603f3d011682016040523d82523d6000602084013e610935565b606091505b5050905080610979576040517f08c379a000000000000000000000000000000000000000000000000000000000815260040161097090611405565b60405180910390fd5b5050505050505050565b6000600160008473ffffffffffffffffffffffffffffffffffffffff1673ffffffffffffffffffffffffffffffffffffffff168152602001908152602001600020549050818111610a09576040517f08c379a0000000000000000000000000000000000000000000000000000000008152600401610a0090611471565b60405180910390fd5b816000808573ffffffffffffffffffffffffffffffffffffffff1673ffffffffffffffffffffffffffffffffffffffff16815260200190815260200160002060003373ffffffffffffffffffffffffffffffffffffffff1673ffffffffffffffffffffffffffffffffffffffff168152602001908152602001600020541015610ac7576040517f08c379a0000000000000000000000000000000000000000000000000000000008152600401610abe906114dd565b60405180910390fd5b6000610ade8383610ad891906111d7565b84610490565b90506000600260008673ffffffffffffffffffffffffffffffffffffffff1673ffffffffffffffffffffffffffffffffffffffff1681526020019081526020016000205490506000670de0b6b3a76400008284610b3b9190611101565b610b459190611172565b9050846000808873ffffffffffffffffffffffffffffffffffffffff1673ffffffffffffffffffffffffffffffffffffffff16815260200190815260200160002060003373ffffffffffffffffffffffffffffffffffffffff1673ffffffffffffffffffffffffffffffffffffffff1681526020019081526020016000206000828254610bd291906111d7565b925050819055508484610be591906111d7565b600160008873ffffffffffffffffffffffffffffffffffffffff1673ffffffffffffffffffffffffffffffffffffffff168152602001908152602001600020819055503373ffffffffffffffffffffffffffffffffffffffff168673ffffffffffffffffffffffffffffffffffffffff167f2a9584634285eab5ec1ef849f5abc0d8e8bf8467f580028e0cbca125b7d7c0fc878487610c8491906111d7565b85604051610c949392919061133c565b60405180910390a36000600360008873ffffffffffffffffffffffffffffffffffffffff1673ffffffffffffffffffffffffffffffffffffffff16815260200190815260200160002060009054906101000a900473ffffffffffffffffffffffffffffffffffffffff16905060003373ffffffffffffffffffffffffffffffffffffffff168386610d2591906111d7565b604051610d31906113a4565b60006040518083038185875af1925050503d8060008114610d6e576040519150601f19603f3d011682016040523d82523d6000602084013e610d73565b606091505b5050905060008273ffffffffffffffffffffffffffffffffffffffff1684604051610d9d906113a4565b60006040518083038185875af1925050503d8060008114610dda576040519150601f19603f3d011682016040523d82523d6000602084013e610ddf565b606091505b50509050818015610ded5750805b610e2c576040517f08c379a0000000000000000000000000000000000000000000000000000000008152600401610e2390611405565b60405180910390fd5b505050505050505050565b6000610e8d82600160008673ffffffffffffffffffffffffffffffffffffffff1673ffffffffffffffffffffffffffffffffffffffff16815260200190815260200160002054610e8791906111d7565b83610490565b905092915050565b60016020528060005260406000206000915090505481565b60036020528060005260406000206000915054906101000a900473ffffffffffffffffffffffffffffffffffffffff1681565b60026020528060005260406000206000915090505481565b600080fd5b600073ffffffffffffffffffffffffffffffffffffffff82169050919050565b6000610f2882610efd565b9050919050565b610f3881610f1d565b8114610f4357600080fd5b50565b600081359050610f5581610f2f565b92915050565b6000819050919050565b610f6e81610f5b565b8114610f7957600080fd5b50565b600081359050610f8b81610f65565b92915050565b60008060408385031215610fa857610fa7610ef8565b5b6000610fb685828601610f46565b9250506020610fc785828601610f7c565b9150509250929050565b610fda81610f5b565b82525050565b6000602082019050610ff56000830184610fd1565b92915050565b6000806040838503121561101257611011610ef8565b5b600061102085828601610f46565b925050602061103185828601610f46565b9150509250929050565b6000806040838503121561105257611051610ef8565b5b600061106085828601610f7c565b925050602061107185828601610f7c565b9150509250929050565b60006020828403121561109157611090610ef8565b5b600061109f84828501610f46565b91505092915050565b6110b181610f1d565b82525050565b60006020820190506110cc60008301846110a8565b92915050565b7f4e487b7100000000000000000000000000000000000000000000000000000000600052601160045260246000fd5b600061110c82610f5b565b915061111783610f5b565b925082820261112581610f5b565b9150828204841483151761113c5761113b6110d2565b5b5092915050565b7f4e487b7100000000000000000000000000000000000000000000000000000000600052601260045260246000fd5b600061117d82610f5b565b915061118883610f5b565b92508261119857611197611143565b5b828204905092915050565b60006111ae82610f5b565b91506111b983610f5b565b92508282019050808211156111d1576111d06110d2565b5b92915050565b60006111e282610f5b565b91506111ed83610f5b565b9250828203905081811115611205576112046110d2565b5b92915050565b600082825260208201905092915050565b7f436f6d6d756e69747920646f6573206e6f742065786973742079657400000000600082015250565b6000611252601c8361120b565b915061125d8261121c565b602082019050919050565b6000602082019050818103600083015261128181611245565b9050919050565b7f496e73756666696369656e74207061796d656e74000000000000000000000000600082015250565b60006112be60148361120b565b91506112c982611288565b602082019050919050565b600060208201905081810360008301526112ed816112b1565b9050919050565b60006112ff82610f5b565b91507fffffffffffffffffffffffffffffffffffffffffffffffffffffffffffffffff8203611331576113306110d2565b5b600182019050919050565b60006060820190506113516000830186610fd1565b61135e6020830185610fd1565b61136b6040830184610fd1565b949350505050565b600081905092915050565b50565b600061138e600083611373565b91506113998261137e565b600082019050919050565b60006113af82611381565b9150819050919050565b7f46756e6473207472616e73666572206661696c65640000000000000000000000600082015250565b60006113ef60158361120b565b91506113fa826113b9565b602082019050919050565b6000602082019050818103600083015261141e816113e2565b9050919050565b7f43616e6e6f742073656c6c206c617374206b6579000000000000000000000000600082015250565b600061145b60148361120b565b915061146682611425565b602082019050919050565b6000602082019050818103600083015261148a8161144e565b9050919050565b7f496e73756666696369656e74206b657973000000000000000000000000000000600082015250565b60006114c760118361120b565b91506114d282611491565b602082019050919050565b600060208201905081810360008301526114f6816114ba565b905091905056fea26469706673582212203250fa904d3dc11c206c2e8a4c22e21d09ae0fba2c840e4a9e56a7d0aebe2bd064736f6c63430008130033",
  "linkReferences": {},
  "deployedLinkReferences": {}
}