{
  "_format": "hh-sol-artifact-1",
  "contractName": "CommunityKeys",
  "sourceName": "contracts/CommunityKeys.sol",
  "abi": [
    {
      "inputs": [],
      "stateMutability": "nonpayable",
      "type": "constructor"
    },
    {
      "anonymous": false,
      "inputs": [
        {
          "indexed": true,
          "internalType": "address",
          "name": "_safe",
          "type": "address"
        },
        {
          "indexed": true,
          "internalType": "address",
          "name": "_owner",
          "type": "address"
        },
        {
          "indexed": false,
          "internalType": "uint256",
          "name": "_fee",
          "type": "uint256"
        },
        {
          "indexed": false,
          "internalType": "string",
          "name": "_name",
          "type": "string"
        }
      ],
      "name": "CommunityCreated",
      "type": "event"
    },
    {
      "anonymous": false,
      "inputs": [
        {
          "indexed": false,
          "internalType": "string",
          "name": "_community_name",
          "type": "string"
        },
        {
          "indexed": true,
          "internalType": "address",
          "name": "_buyer",
          "type": "address"
        },
        {
          "indexed": false,
          "internalType": "uint256",
          "name": "_amount_of_keys",
          "type": "uint256"
        },
        {
          "indexed": false,
          "internalType": "uint256",
          "name": "_ethSpent",
          "type": "uint256"
        },
        {
          "indexed": false,
          "internalType": "uint256",
          "name": "_ownerFee",
          "type": "uint256"
        }
      ],
      "name": "CommunityKeyBought",
      "type": "event"
    },
    {
      "anonymous": false,
      "inputs": [
        {
          "indexed": false,
          "internalType": "string",
          "name": "_community_name",
          "type": "string"
        },
        {
          "indexed": true,
          "internalType": "address",
          "name": "_buyer",
          "type": "address"
        },
        {
          "indexed": false,
          "internalType": "uint256",
          "name": "_amount_of_keys",
          "type": "uint256"
        },
        {
          "indexed": false,
          "internalType": "uint256",
          "name": "_ethSpent",
          "type": "uint256"
        },
        {
          "indexed": false,
          "internalType": "uint256",
          "name": "_ownerFee",
          "type": "uint256"
        }
      ],
      "name": "CommunityKeySold",
      "type": "event"
    },
    {
      "inputs": [
        {
          "internalType": "string",
          "name": "communityName",
          "type": "string"
        }
      ],
      "name": "buyKey",
      "outputs": [],
      "stateMutability": "payable",
      "type": "function"
    },
    {
      "inputs": [
        {
          "internalType": "string",
          "name": "",
          "type": "string"
        },
        {
          "internalType": "address",
          "name": "",
          "type": "address"
        }
      ],
      "name": "communityKeys",
      "outputs": [
        {
          "internalType": "uint256",
          "name": "",
          "type": "uint256"
        }
      ],
      "stateMutability": "view",
      "type": "function"
    },
    {
      "inputs": [
        {
          "internalType": "string",
          "name": "",
          "type": "string"
        }
      ],
      "name": "communityKeysSupply",
      "outputs": [
        {
          "internalType": "uint256",
          "name": "",
          "type": "uint256"
        }
      ],
      "stateMutability": "view",
      "type": "function"
    },
    {
      "inputs": [
        {
          "internalType": "address",
          "name": "safe",
          "type": "address"
        },
        {
          "internalType": "uint256",
          "name": "fee",
          "type": "uint256"
        },
        {
          "internalType": "string",
          "name": "name",
          "type": "string"
        }
      ],
      "name": "createCommunity",
      "outputs": [],
      "stateMutability": "nonpayable",
      "type": "function"
    },
    {
      "inputs": [
        {
          "internalType": "string",
          "name": "",
          "type": "string"
        }
      ],
      "name": "fees",
      "outputs": [
        {
          "internalType": "uint256",
          "name": "",
          "type": "uint256"
        }
      ],
      "stateMutability": "view",
      "type": "function"
    },
    {
      "inputs": [
        {
          "internalType": "string",
          "name": "communityName",
          "type": "string"
        },
        {
          "internalType": "uint256",
          "name": "amount",
          "type": "uint256"
        }
      ],
      "name": "getBuyPrice",
      "outputs": [
        {
          "internalType": "uint256",
          "name": "",
          "type": "uint256"
        }
      ],
      "stateMutability": "view",
      "type": "function"
    },
    {
      "inputs": [
        {
          "internalType": "string",
          "name": "communityName",
          "type": "string"
        },
        {
          "internalType": "uint256",
          "name": "amount",
          "type": "uint256"
        }
      ],
      "name": "getBuyPriceAfterFee",
      "outputs": [
        {
          "internalType": "uint256",
          "name": "",
          "type": "uint256"
        }
      ],
      "stateMutability": "view",
      "type": "function"
    },
    {
      "inputs": [
        {
          "internalType": "uint256",
          "name": "supply",
          "type": "uint256"
        },
        {
          "internalType": "uint256",
          "name": "amount",
          "type": "uint256"
        }
      ],
      "name": "getPrice",
      "outputs": [
        {
          "internalType": "uint256",
          "name": "",
          "type": "uint256"
        }
      ],
      "stateMutability": "pure",
      "type": "function"
    },
    {
      "inputs": [
        {
          "internalType": "string",
          "name": "communityName",
          "type": "string"
        },
        {
          "internalType": "uint256",
          "name": "amount",
          "type": "uint256"
        }
      ],
      "name": "getSellPrice",
      "outputs": [
        {
          "internalType": "uint256",
          "name": "",
          "type": "uint256"
        }
      ],
      "stateMutability": "view",
      "type": "function"
    },
    {
      "inputs": [
        {
          "internalType": "string",
          "name": "communityName",
          "type": "string"
        },
        {
          "internalType": "uint256",
          "name": "amount",
          "type": "uint256"
        }
      ],
      "name": "getSellPriceAfterFee",
      "outputs": [
        {
          "internalType": "uint256",
          "name": "",
          "type": "uint256"
        }
      ],
      "stateMutability": "view",
      "type": "function"
    },
    {
      "inputs": [
        {
          "internalType": "address",
          "name": "",
          "type": "address"
        }
      ],
      "name": "owners",
      "outputs": [
        {
          "internalType": "string",
          "name": "",
          "type": "string"
        }
      ],
      "stateMutability": "view",
      "type": "function"
    },
    {
      "inputs": [
        {
          "internalType": "string",
          "name": "",
          "type": "string"
        }
      ],
      "name": "safes",
      "outputs": [
        {
          "internalType": "address",
          "name": "",
          "type": "address"
        }
      ],
      "stateMutability": "view",
      "type": "function"
    },
    {
      "inputs": [
        {
          "internalType": "string",
          "name": "communityName",
          "type": "string"
        },
        {
          "internalType": "uint256",
          "name": "amount",
          "type": "uint256"
        }
      ],
      "name": "sellKeys",
      "outputs": [],
      "stateMutability": "payable",
      "type": "function"
    }
  ],
  "bytecode": "0x608060405234801561001057600080fd5b50611f45806100206000396000f3fe6080604052600436106100c25760003560e01c80639e5fbb231161007f578063c0891b2a11610059578063c0891b2a14610296578063c889eba8146102d3578063d8c1b33714610310578063e005cbbf1461034d576100c2565b80639e5fbb23146101f3578063a7319e9314610230578063b9979bd514610259576100c2565b8063022914a7146100c75780631686b5ee146101045780631c395787146101415780635789e35c1461015d5780635cf4ee911461017957806367d96cf4146101b6575b600080fd5b3480156100d357600080fd5b506100ee60048036038101906100e991906111b7565b61038a565b6040516100fb9190611274565b60405180910390f35b34801561011057600080fd5b5061012b60048036038101906101269190611401565b61042a565b604051610138919061146c565b60405180910390f35b61015b60048036038101906101569190611487565b610496565b005b61017760048036038101906101729190611401565b610799565b005b34801561018557600080fd5b506101a0600480360381019061019b91906114d0565b610b74565b6040516101ad919061146c565b60405180910390f35b3480156101c257600080fd5b506101dd60048036038101906101d89190611487565b610ca9565b6040516101ea919061146c565b60405180910390f35b3480156101ff57600080fd5b5061021a60048036038101906102159190611401565b610cd7565b604051610227919061146c565b60405180910390f35b34801561023c57600080fd5b5061025760048036038101906102529190611510565b610d09565b005b34801561026557600080fd5b50610280600480360381019061027b9190611401565b610fea565b60405161028d919061146c565b60405180910390f35b3480156102a257600080fd5b506102bd60048036038101906102b8919061157f565b611056565b6040516102ca919061146c565b60405180910390f35b3480156102df57600080fd5b506102fa60048036038101906102f59190611401565b611091565b604051610307919061146c565b60405180910390f35b34801561031c57600080fd5b5061033760048036038101906103329190611487565b6110ce565b60405161034491906115ea565b60405180910390f35b34801561035957600080fd5b50610374600480360381019061036f9190611487565b611117565b604051610381919061146c565b60405180910390f35b600160205280600052604060002060009150905080546103a990611634565b80601f01602080910402602001604051908101604052809291908181526020018280546103d590611634565b80156104225780601f106103f757610100808354040283529160200191610422565b820191906000526020600020905b81548152906001019060200180831161040557829003601f168201915b505050505081565b6000806104378484611091565b9050600060038560405161044b91906116a1565b90815260200160405180910390205490506000670de0b6b3a7640000828461047391906116e7565b61047d9190611758565b9050808361048b9190611789565b935050505092915050565b60006002826040516104a891906116a1565b9081526020016040518091039020549050600081036104fc576040517f08c379a00000000000000000000000000000000000000000000000000000000081526004016104f390611809565b60405180910390fd5b6000610509826001610b74565b9050600060038460405161051d91906116a1565b90815260200160405180910390205490506000670de0b6b3a7640000828461054591906116e7565b61054f9190611758565b9050808361055d9190611829565b34101561059f576040517f08c379a0000000000000000000000000000000000000000000000000000000008152600401610596906118a9565b60405180910390fd5b60016000866040516105b191906116a1565b908152602001604051809103902060003373ffffffffffffffffffffffffffffffffffffffff1673ffffffffffffffffffffffffffffffffffffffff168152602001908152602001600020600082825461060b9190611829565b9250508190555060018461061f9190611829565b60028660405161062f91906116a1565b9081526020016040518091039020819055503373ffffffffffffffffffffffffffffffffffffffff167f836f41864fc664628387891074d932861254739ff27cf2f99ef6754bb41bd24e86600184876106889190611829565b85604051610699949392919061190e565b60405180910390a260006004866040516106b391906116a1565b908152602001604051809103902060009054906101000a900473ffffffffffffffffffffffffffffffffffffffff16905060008173ffffffffffffffffffffffffffffffffffffffff168360405161070a9061198b565b60006040518083038185875af1925050503d8060008114610747576040519150601f19603f3d011682016040523d82523d6000602084013e61074c565b606091505b5050905080610790576040517f08c379a0000000000000000000000000000000000000000000000000000000008152600401610787906119ec565b60405180910390fd5b50505050505050565b60006002836040516107ab91906116a1565b90815260200160405180910390205490508181116107fe576040517f08c379a00000000000000000000000000000000000000000000000000000000081526004016107f590611a58565b60405180910390fd5b8160008460405161080f91906116a1565b908152602001604051809103902060003373ffffffffffffffffffffffffffffffffffffffff1673ffffffffffffffffffffffffffffffffffffffff16815260200190815260200160002054101561089c576040517f08c379a000000000000000000000000000000000000000000000000000000000815260040161089390611ac4565b60405180910390fd5b60006108b383836108ad9190611789565b84610b74565b905060006003856040516108c791906116a1565b90815260200160405180910390205490506000670de0b6b3a764000082846108ef91906116e7565b6108f99190611758565b90508460008760405161090c91906116a1565b908152602001604051809103902060003373ffffffffffffffffffffffffffffffffffffffff1673ffffffffffffffffffffffffffffffffffffffff16815260200190815260200160002060008282546109669190611789565b9250508190555084846109799190611789565b60028760405161098991906116a1565b9081526020016040518091039020819055503373ffffffffffffffffffffffffffffffffffffffff167f725e4b38f551c312eebebe1c92759ff1101330fd68fab67c0b87257dd9c94082878784876109e19190611789565b856040516109f29493929190611ae4565b60405180910390a26000600487604051610a0c91906116a1565b908152602001604051809103902060009054906101000a900473ffffffffffffffffffffffffffffffffffffffff16905060003373ffffffffffffffffffffffffffffffffffffffff168386610a629190611789565b604051610a6e9061198b565b60006040518083038185875af1925050503d8060008114610aab576040519150601f19603f3d011682016040523d82523d6000602084013e610ab0565b606091505b5050905060008273ffffffffffffffffffffffffffffffffffffffff1684604051610ada9061198b565b60006040518083038185875af1925050503d8060008114610b17576040519150601f19603f3d011682016040523d82523d6000602084013e610b1c565b606091505b50509050818015610b2a5750805b610b69576040517f08c379a0000000000000000000000000000000000000000000000000000000008152600401610b60906119ec565b60405180910390fd5b505050505050505050565b60008060008414610bd657600660018086610b8f9190611789565b6002610b9b91906116e7565b610ba59190611829565b85600187610bb39190611789565b610bbd91906116e7565b610bc791906116e7565b610bd19190611758565b610bd9565b60005b905060008085148015610bec5750600184145b610c685760066001808688610c019190611829565b610c0b9190611789565b6002610c1791906116e7565b610c219190611829565b8587610c2d9190611829565b60018789610c3b9190611829565b610c459190611789565b610c4f91906116e7565b610c5991906116e7565b610c639190611758565b610c6b565b60005b905060008282610c7b9190611789565b9050613e80670de0b6b3a764000082610c9491906116e7565b610c9e9190611758565b935050505092915050565b6002818051602081018201805184825260208301602085012081835280955050505050506000915090505481565b6000610d01600284604051610cec91906116a1565b90815260200160405180910390205483610b74565b905092915050565b600073ffffffffffffffffffffffffffffffffffffffff16600482604051610d3191906116a1565b908152602001604051809103902060009054906101000a900473ffffffffffffffffffffffffffffffffffffffff1673ffffffffffffffffffffffffffffffffffffffff1614610db6576040517f08c379a0000000000000000000000000000000000000000000000000000000008152600401610dad90611b7c565b60405180910390fd5b82600482604051610dc791906116a1565b908152602001604051809103902060006101000a81548173ffffffffffffffffffffffffffffffffffffffff021916908373ffffffffffffffffffffffffffffffffffffffff16021790555081600382604051610e2491906116a1565b90815260200160405180910390208190555080600160003373ffffffffffffffffffffffffffffffffffffffff1673ffffffffffffffffffffffffffffffffffffffff1681526020019081526020016000209081610e829190611d3e565b50600081604051610e9391906116a1565b908152602001604051809103902060003373ffffffffffffffffffffffffffffffffffffffff1673ffffffffffffffffffffffffffffffffffffffff1681526020019081526020016000206000815480929190610eef90611e10565b9190505550600281604051610f0491906116a1565b90815260200160405180910390206000815480929190610f2390611e10565b91905055503373ffffffffffffffffffffffffffffffffffffffff168373ffffffffffffffffffffffffffffffffffffffff167f51ed00c42da340b724e9112d7711dac05ba040fe35b320cf28f7cee16d7e9c7c8484604051610f87929190611e58565b60405180910390a33373ffffffffffffffffffffffffffffffffffffffff167f836f41864fc664628387891074d932861254739ff27cf2f99ef6754bb41bd24e826001600080604051610fdd9493929190611ec3565b60405180910390a2505050565b600080610ff78484610cd7565b9050600060038560405161100b91906116a1565b90815260200160405180910390205490506000670de0b6b3a7640000828461103391906116e7565b61103d9190611758565b9050808361104b9190611829565b935050505092915050565b600082805160208101820180518482526020830160208501208183528095505050505050602052806000526040600020600091509150505481565b60006110c6826002856040516110a791906116a1565b9081526020016040518091039020546110c09190611789565b83610b74565b905092915050565b6004818051602081018201805184825260208301602085012081835280955050505050506000915054906101000a900473ffffffffffffffffffffffffffffffffffffffff1681565b6003818051602081018201805184825260208301602085012081835280955050505050506000915090505481565b6000604051905090565b600080fd5b600080fd5b600073ffffffffffffffffffffffffffffffffffffffff82169050919050565b600061118482611159565b9050919050565b61119481611179565b811461119f57600080fd5b50565b6000813590506111b18161118b565b92915050565b6000602082840312156111cd576111cc61114f565b5b60006111db848285016111a2565b91505092915050565b600081519050919050565b600082825260208201905092915050565b60005b8381101561121e578082015181840152602081019050611203565b60008484015250505050565b6000601f19601f8301169050919050565b6000611246826111e4565b61125081856111ef565b9350611260818560208601611200565b6112698161122a565b840191505092915050565b6000602082019050818103600083015261128e818461123b565b905092915050565b600080fd5b600080fd5b7f4e487b7100000000000000000000000000000000000000000000000000000000600052604160045260246000fd5b6112d88261122a565b810181811067ffffffffffffffff821117156112f7576112f66112a0565b5b80604052505050565b600061130a611145565b905061131682826112cf565b919050565b600067ffffffffffffffff821115611336576113356112a0565b5b61133f8261122a565b9050602081019050919050565b82818337600083830152505050565b600061136e6113698461131b565b611300565b90508281526020810184848401111561138a5761138961129b565b5b61139584828561134c565b509392505050565b600082601f8301126113b2576113b1611296565b5b81356113c284826020860161135b565b91505092915050565b6000819050919050565b6113de816113cb565b81146113e957600080fd5b50565b6000813590506113fb816113d5565b92915050565b600080604083850312156114185761141761114f565b5b600083013567ffffffffffffffff81111561143657611435611154565b5b6114428582860161139d565b9250506020611453858286016113ec565b9150509250929050565b611466816113cb565b82525050565b6000602082019050611481600083018461145d565b92915050565b60006020828403121561149d5761149c61114f565b5b600082013567ffffffffffffffff8111156114bb576114ba611154565b5b6114c78482850161139d565b91505092915050565b600080604083850312156114e7576114e661114f565b5b60006114f5858286016113ec565b9250506020611506858286016113ec565b9150509250929050565b6000806000606084860312156115295761152861114f565b5b6000611537868287016111a2565b9350506020611548868287016113ec565b925050604084013567ffffffffffffffff81111561156957611568611154565b5b6115758682870161139d565b9150509250925092565b600080604083850312156115965761159561114f565b5b600083013567ffffffffffffffff8111156115b4576115b3611154565b5b6115c08582860161139d565b92505060206115d1858286016111a2565b9150509250929050565b6115e481611179565b82525050565b60006020820190506115ff60008301846115db565b92915050565b7f4e487b7100000000000000000000000000000000000000000000000000000000600052602260045260246000fd5b6000600282049050600182168061164c57607f821691505b60208210810361165f5761165e611605565b5b50919050565b600081905092915050565b600061167b826111e4565b6116858185611665565b9350611695818560208601611200565b80840191505092915050565b60006116ad8284611670565b915081905092915050565b7f4e487b7100000000000000000000000000000000000000000000000000000000600052601160045260246000fd5b60006116f2826113cb565b91506116fd836113cb565b925082820261170b816113cb565b91508282048414831517611722576117216116b8565b5b5092915050565b7f4e487b7100000000000000000000000000000000000000000000000000000000600052601260045260246000fd5b6000611763826113cb565b915061176e836113cb565b92508261177e5761177d611729565b5b828204905092915050565b6000611794826113cb565b915061179f836113cb565b92508282039050818111156117b7576117b66116b8565b5b92915050565b7f436f6d6d756e69747920646f6573206e6f742065786973742079657400000000600082015250565b60006117f3601c836111ef565b91506117fe826117bd565b602082019050919050565b60006020820190508181036000830152611822816117e6565b9050919050565b6000611834826113cb565b915061183f836113cb565b9250828201905080821115611857576118566116b8565b5b92915050565b7f496e73756666696369656e74207061796d656e74000000000000000000000000600082015250565b60006118936014836111ef565b915061189e8261185d565b602082019050919050565b600060208201905081810360008301526118c281611886565b9050919050565b6000819050919050565b6000819050919050565b60006118f86118f36118ee846118c9565b6118d3565b6113cb565b9050919050565b611908816118dd565b82525050565b60006080820190508181036000830152611928818761123b565b905061193760208301866118ff565b611944604083018561145d565b611951606083018461145d565b95945050505050565b600081905092915050565b50565b600061197560008361195a565b915061198082611965565b600082019050919050565b600061199682611968565b9150819050919050565b7f46756e6473207472616e73666572206661696c65640000000000000000000000600082015250565b60006119d66015836111ef565b91506119e1826119a0565b602082019050919050565b60006020820190508181036000830152611a05816119c9565b9050919050565b7f43616e6e6f742073656c6c206c617374206b6579000000000000000000000000600082015250565b6000611a426014836111ef565b9150611a4d82611a0c565b602082019050919050565b60006020820190508181036000830152611a7181611a35565b9050919050565b7f496e73756666696369656e74206b657973000000000000000000000000000000600082015250565b6000611aae6011836111ef565b9150611ab982611a78565b602082019050919050565b60006020820190508181036000830152611add81611aa1565b9050919050565b60006080820190508181036000830152611afe818761123b565b9050611b0d602083018661145d565b611b1a604083018561145d565b611b27606083018461145d565b95945050505050565b7f436f6d6d756e69747920616c7265616479206578697374730000000000000000600082015250565b6000611b666018836111ef565b9150611b7182611b30565b602082019050919050565b60006020820190508181036000830152611b9581611b59565b9050919050565b60008190508160005260206000209050919050565b60006020601f8301049050919050565b600082821b905092915050565b600060088302611bfe7fffffffffffffffffffffffffffffffffffffffffffffffffffffffffffffffff82611bc1565b611c088683611bc1565b95508019841693508086168417925050509392505050565b6000611c3b611c36611c31846113cb565b6118d3565b6113cb565b9050919050565b6000819050919050565b611c5583611c20565b611c69611c6182611c42565b848454611bce565b825550505050565b600090565b611c7e611c71565b611c89818484611c4c565b505050565b5b81811015611cad57611ca2600082611c76565b600181019050611c8f565b5050565b601f821115611cf257611cc381611b9c565b611ccc84611bb1565b81016020851015611cdb578190505b611cef611ce785611bb1565b830182611c8e565b50505b505050565b600082821c905092915050565b6000611d1560001984600802611cf7565b1980831691505092915050565b6000611d2e8383611d04565b9150826002028217905092915050565b611d47826111e4565b67ffffffffffffffff811115611d6057611d5f6112a0565b5b611d6a8254611634565b611d75828285611cb1565b600060209050601f831160018114611da85760008415611d96578287015190505b611da08582611d22565b865550611e08565b601f198416611db686611b9c565b60005b82811015611dde57848901518255600182019150602085019450602081019050611db9565b86831015611dfb5784890151611df7601f891682611d04565b8355505b6001600288020188555050505b505050505050565b6000611e1b826113cb565b91507fffffffffffffffffffffffffffffffffffffffffffffffffffffffffffffffff8203611e4d57611e4c6116b8565b5b600182019050919050565b6000604082019050611e6d600083018561145d565b8181036020830152611e7f818461123b565b90509392505050565b6000819050919050565b6000611ead611ea8611ea384611e88565b6118d3565b6113cb565b9050919050565b611ebd81611e92565b82525050565b60006080820190508181036000830152611edd818761123b565b9050611eec60208301866118ff565b611ef96040830185611eb4565b611f066060830184611eb4565b9594505050505056fea264697066735822122017d94cb153950e187d5a028ac49237ab4cc704a5a8fd88ed52728f7e932dd89664736f6c63430008130033",
  "linkReferences": {},
  "deployedLinkReferences": {}
}