{"contracts/CommunityKeys.sol":{"CommunityKeys":{"abi":[{"inputs":[],"stateMutability":"nonpayable","type":"constructor"},{"anonymous":false,"inputs":[{"indexed":true,"internalType":"address","name":"_safe","type":"address"},{"indexed":true,"internalType":"address","name":"_owner","type":"address"},{"indexed":false,"internalType":"uint256","name":"_fee","type":"uint256"}],"name":"CommunityCreated","type":"event"},{"anonymous":false,"inputs":[{"indexed":true,"internalType":"address","name":"_key","type":"address"},{"indexed":true,"internalType":"address","name":"_buyer","type":"address"},{"indexed":false,"internalType":"uint256","name":"_amount_of_keys","type":"uint256"},{"indexed":false,"internalType":"uint256","name":"_ethSpent","type":"uint256"},{"indexed":false,"internalType":"uint256","name":"_ownerFee","type":"uint256"}],"name":"CommunityKeyBought","type":"event"},{"anonymous":false,"inputs":[{"indexed":true,"internalType":"address","name":"_key","type":"address"},{"indexed":true,"internalType":"address","name":"_buyer","type":"address"},{"indexed":false,"internalType":"uint256","name":"_amount_of_keys","type":"uint256"},{"indexed":false,"internalType":"uint256","name":"_ethSpent","type":"uint256"},{"indexed":false,"internalType":"uint256","name":"_ownerFee","type":"uint256"}],"name":"CommunityKeySold","type":"event"},{"inputs":[{"internalType":"address","name":"keysSubject","type":"address"},{"internalType":"uint256","name":"amount","type":"uint256"}],"name":"buyKey","outputs":[],"stateMutability":"payable","type":"function"},{"inputs":[{"internalType":"address","name":"","type":"address"},{"internalType":"address","name":"","type":"address"}],"name":"communityKeys","outputs":[{"internalType":"uint256","name":"","type":"uint256"}],"stateMutability":"view","type":"function"},{"inputs":[{"internalType":"address","name":"","type":"address"}],"name":"communityKeysSupply","outputs":[{"internalType":"uint256","name":"","type":"uint256"}],"stateMutability":"view","type":"function"},{"inputs":[{"internalType":"address","name":"","type":"address"}],"name":"fees","outputs":[{"internalType":"uint256","name":"","type":"uint256"}],"stateMutability":"view","type":"function"},{"inputs":[{"internalType":"address","name":"keysSubject","type":"address"},{"internalType":"uint256","name":"amount","type":"uint256"}],"name":"getBuyPrice","outputs":[{"internalType":"uint256","name":"","type":"uint256"}],"stateMutability":"view","type":"function"},{"inputs":[{"internalType":"address","name":"keysSubject","type":"address"},{"internalType":"uint256","name":"amount","type":"uint256"}],"name":"getBuyPriceAfterFee","outputs":[{"internalType":"uint256","name":"","type":"uint256"}],"stateMutability":"view","type":"function"},{"inputs":[{"internalType":"uint256","name":"supply","type":"uint256"},{"internalType":"uint256","name":"amount","type":"uint256"}],"name":"getPrice","outputs":[{"internalType":"uint256","name":"","type":"uint256"}],"stateMutability":"pure","type":"function"},{"inputs":[{"internalType":"address","name":"keysSubject","type":"address"},{"internalType":"uint256","name":"amount","type":"uint256"}],"name":"getSellPrice","outputs":[{"internalType":"uint256","name":"","type":"uint256"}],"stateMutability":"view","type":"function"},{"inputs":[{"internalType":"address","name":"keysSubject","type":"address"},{"internalType":"uint256","name":"amount","type":"uint256"}],"name":"getSellPriceAfterFee","outputs":[{"internalType":"uint256","name":"","type":"uint256"}],"stateMutability":"view","type":"function"},{"inputs":[{"internalType":"address","name":"","type":"address"}],"name":"safes","outputs":[{"internalType":"address","name":"","type":"address"}],"stateMutability":"view","type":"function"},{"inputs":[{"internalType":"address","name":"keysSubject","type":"address"},{"internalType":"uint256","name":"amount","type":"uint256"}],"name":"sellKeys","outputs":[],"stateMutability":"payable","type":"function"}],"evm":{"bytecode":{"linkReferences":{},"object":"608060405234801561001057600080fd5b50611533806100206000396000f3fe60806040526004361061009c5760003560e01c80637e0cf35b116100645780637e0cf35b146101d25780639111ac89146101ee5780639ae717811461020a578063e1ccd6e914610247578063f47f43fd14610284578063faaebd21146102c15761009c565b80630f026f6d146100a15780632267a89c146100de578063227b3ea01461011b5780634635256e146101585780635cf4ee9114610195575b600080fd5b3480156100ad57600080fd5b506100c860048036038101906100c39190610f91565b6102fe565b6040516100d59190610fe0565b60405180910390f35b3480156100ea57600080fd5b5061010560048036038101906101009190610f91565b61038b565b6040516101129190610fe0565b60405180910390f35b34801561012757600080fd5b50610142600480360381019061013d9190610ffb565b610418565b60405161014f9190610fe0565b60405180910390f35b34801561016457600080fd5b5061017f600480360381019061017a9190610f91565b61043d565b60405161018c9190610fe0565b60405180910390f35b3480156101a157600080fd5b506101bc60048036038101906101b7919061103b565b610490565b6040516101c99190610fe0565b60405180910390f35b6101ec60048036038101906101e79190610f91565b6105c5565b005b61020860048036038101906102039190610f91565b610983565b005b34801561021657600080fd5b50610231600480360381019061022c9190610f91565b610e37565b60405161023e9190610fe0565b60405180910390f35b34801561025357600080fd5b5061026e6004803603810190610269919061107b565b610e95565b60405161027b9190610fe0565b60405180910390f35b34801561029057600080fd5b506102ab60048036038101906102a6919061107b565b610ead565b6040516102b891906110b7565b60405180910390f35b3480156102cd57600080fd5b506102e860048036038101906102e3919061107b565b610ee0565b6040516102f59190610fe0565b60405180910390f35b60008061030b848461043d565b90506000600260008673ffffffffffffffffffffffffffffffffffffffff1673ffffffffffffffffffffffffffffffffffffffff1681526020019081526020016000205490506000670de0b6b3a764000082846103689190611101565b6103729190611172565b9050808361038091906111a3565b935050505092915050565b6000806103988484610e37565b90506000600260008673ffffffffffffffffffffffffffffffffffffffff1673ffffffffffffffffffffffffffffffffffffffff1681526020019081526020016000205490506000670de0b6b3a764000082846103f59190611101565b6103ff9190611172565b9050808361040d91906111d7565b935050505092915050565b6000602052816000526040600020602052806000526040600020600091509150505481565b6000610488600160008573ffffffffffffffffffffffffffffffffffffffff1673ffffffffffffffffffffffffffffffffffffffff1681526020019081526020016000205483610490565b905092915050565b600080600084146104f2576006600180866104ab91906111d7565b60026104b79190611101565b6104c191906111a3565b856001876104cf91906111d7565b6104d99190611101565b6104e39190611101565b6104ed9190611172565b6104f5565b60005b9050600080851480156105085750600184145b610584576006600180868861051d91906111a3565b61052791906111d7565b60026105339190611101565b61053d91906111a3565b858761054991906111a3565b6001878961055791906111a3565b61056191906111d7565b61056b9190611101565b6105759190611101565b61057f9190611172565b610587565b60005b90506000828261059791906111d7565b9050613e80670de0b6b3a7640000826105b09190611101565b6105ba9190611172565b935050505092915050565b6000600160008473ffffffffffffffffffffffffffffffffffffffff1673ffffffffffffffffffffffffffffffffffffffff1681526020019081526020016000205490506000810361064c576040517f08c379a000000000000000000000000000000000000000000000000000000000815260040161064390611268565b60405180910390fd5b60006106588284610490565b90506000600260008673ffffffffffffffffffffffffffffffffffffffff1673ffffffffffffffffffffffffffffffffffffffff1681526020019081526020016000205490506000670de0b6b3a764000082846106b59190611101565b6106bf9190611172565b905080836106cd91906111a3565b34101561070f576040517f08c379a0000000000000000000000000000000000000000000000000000000008152600401610706906112d4565b60405180910390fd5b6000808773ffffffffffffffffffffffffffffffffffffffff1673ffffffffffffffffffffffffffffffffffffffff16815260200190815260200160002060003373ffffffffffffffffffffffffffffffffffffffff1673ffffffffffffffffffffffffffffffffffffffff168152602001908152602001600020600081548092919061079b906112f4565b9190505550600160008773ffffffffffffffffffffffffffffffffffffffff1673ffffffffffffffffffffffffffffffffffffffff16815260200190815260200160002060008154809291906107f0906112f4565b91905055503373ffffffffffffffffffffffffffffffffffffffff168673ffffffffffffffffffffffffffffffffffffffff167f4b38d3e57aeb26fb68e074cb2f26fae57d4951f6b9ac4b7cea10ff2d1777a22a87848761085191906111a3565b856040516108619392919061133c565b60405180910390a36000600360008873ffffffffffffffffffffffffffffffffffffffff1673ffffffffffffffffffffffffffffffffffffffff16815260200190815260200160002060009054906101000a900473ffffffffffffffffffffffffffffffffffffffff16905060008173ffffffffffffffffffffffffffffffffffffffff16836040516108f3906113a4565b60006040518083038185875af1925050503d8060008114610930576040519150601f19603f3d011682016040523d82523d6000602084013e610935565b606091505b5050905080610979576040517f08c379a000000000000000000000000000000000000000000000000000000000815260040161097090611405565b60405180910390fd5b5050505050505050565b6000600160008473ffffffffffffffffffffffffffffffffffffffff1673ffffffffffffffffffffffffffffffffffffffff168152602001908152602001600020549050818111610a09576040517f08c379a0000000000000000000000000000000000000000000000000000000008152600401610a0090611471565b60405180910390fd5b816000808573ffffffffffffffffffffffffffffffffffffffff1673ffffffffffffffffffffffffffffffffffffffff16815260200190815260200160002060003373ffffffffffffffffffffffffffffffffffffffff1673ffffffffffffffffffffffffffffffffffffffff168152602001908152602001600020541015610ac7576040517f08c379a0000000000000000000000000000000000000000000000000000000008152600401610abe906114dd565b60405180910390fd5b6000610ade8383610ad891906111d7565b84610490565b90506000600260008673ffffffffffffffffffffffffffffffffffffffff1673ffffffffffffffffffffffffffffffffffffffff1681526020019081526020016000205490506000670de0b6b3a76400008284610b3b9190611101565b610b459190611172565b9050846000808873ffffffffffffffffffffffffffffffffffffffff1673ffffffffffffffffffffffffffffffffffffffff16815260200190815260200160002060003373ffffffffffffffffffffffffffffffffffffffff1673ffffffffffffffffffffffffffffffffffffffff1681526020019081526020016000206000828254610bd291906111d7565b925050819055508484610be591906111d7565b600160008873ffffffffffffffffffffffffffffffffffffffff1673ffffffffffffffffffffffffffffffffffffffff168152602001908152602001600020819055503373ffffffffffffffffffffffffffffffffffffffff168673ffffffffffffffffffffffffffffffffffffffff167f2a9584634285eab5ec1ef849f5abc0d8e8bf8467f580028e0cbca125b7d7c0fc878487610c8491906111d7565b85604051610c949392919061133c565b60405180910390a36000600360008873ffffffffffffffffffffffffffffffffffffffff1673ffffffffffffffffffffffffffffffffffffffff16815260200190815260200160002060009054906101000a900473ffffffffffffffffffffffffffffffffffffffff16905060003373ffffffffffffffffffffffffffffffffffffffff168386610d2591906111d7565b604051610d31906113a4565b60006040518083038185875af1925050503d8060008114610d6e576040519150601f19603f3d011682016040523d82523d6000602084013e610d73565b606091505b5050905060008273ffffffffffffffffffffffffffffffffffffffff1684604051610d9d906113a4565b60006040518083038185875af1925050503d8060008114610dda576040519150601f19603f3d011682016040523d82523d6000602084013e610ddf565b606091505b50509050818015610ded5750805b610e2c576040517f08c379a0000000000000000000000000000000000000000000000000000000008152600401610e2390611405565b60405180910390fd5b505050505050505050565b6000610e8d82600160008673ffffffffffffffffffffffffffffffffffffffff1673ffffffffffffffffffffffffffffffffffffffff16815260200190815260200160002054610e8791906111d7565b83610490565b905092915050565b60016020528060005260406000206000915090505481565b60036020528060005260406000206000915054906101000a900473ffffffffffffffffffffffffffffffffffffffff1681565b60026020528060005260406000206000915090505481565b600080fd5b600073ffffffffffffffffffffffffffffffffffffffff82169050919050565b6000610f2882610efd565b9050919050565b610f3881610f1d565b8114610f4357600080fd5b50565b600081359050610f5581610f2f565b92915050565b6000819050919050565b610f6e81610f5b565b8114610f7957600080fd5b50565b600081359050610f8b81610f65565b92915050565b60008060408385031215610fa857610fa7610ef8565b5b6000610fb685828601610f46565b9250506020610fc785828601610f7c565b9150509250929050565b610fda81610f5b565b82525050565b6000602082019050610ff56000830184610fd1565b92915050565b6000806040838503121561101257611011610ef8565b5b600061102085828601610f46565b925050602061103185828601610f46565b9150509250929050565b6000806040838503121561105257611051610ef8565b5b600061106085828601610f7c565b925050602061107185828601610f7c565b9150509250929050565b60006020828403121561109157611090610ef8565b5b600061109f84828501610f46565b91505092915050565b6110b181610f1d565b82525050565b60006020820190506110cc60008301846110a8565b92915050565b7f4e487b7100000000000000000000000000000000000000000000000000000000600052601160045260246000fd5b600061110c82610f5b565b915061111783610f5b565b925082820261112581610f5b565b9150828204841483151761113c5761113b6110d2565b5b5092915050565b7f4e487b7100000000000000000000000000000000000000000000000000000000600052601260045260246000fd5b600061117d82610f5b565b915061118883610f5b565b92508261119857611197611143565b5b828204905092915050565b60006111ae82610f5b565b91506111b983610f5b565b92508282019050808211156111d1576111d06110d2565b5b92915050565b60006111e282610f5b565b91506111ed83610f5b565b9250828203905081811115611205576112046110d2565b5b92915050565b600082825260208201905092915050565b7f436f6d6d756e69747920646f6573206e6f742065786973742079657400000000600082015250565b6000611252601c8361120b565b915061125d8261121c565b602082019050919050565b6000602082019050818103600083015261128181611245565b9050919050565b7f496e73756666696369656e74207061796d656e74000000000000000000000000600082015250565b60006112be60148361120b565b91506112c982611288565b602082019050919050565b600060208201905081810360008301526112ed816112b1565b9050919050565b60006112ff82610f5b565b91507fffffffffffffffffffffffffffffffffffffffffffffffffffffffffffffffff8203611331576113306110d2565b5b600182019050919050565b60006060820190506113516000830186610fd1565b61135e6020830185610fd1565b61136b6040830184610fd1565b949350505050565b600081905092915050565b50565b600061138e600083611373565b91506113998261137e565b600082019050919050565b60006113af82611381565b9150819050919050565b7f46756e6473207472616e73666572206661696c65640000000000000000000000600082015250565b60006113ef60158361120b565b91506113fa826113b9565b602082019050919050565b6000602082019050818103600083015261141e816113e2565b9050919050565b7f43616e6e6f742073656c6c206c617374206b6579000000000000000000000000600082015250565b600061145b60148361120b565b915061146682611425565b602082019050919050565b6000602082019050818103600083015261148a8161144e565b9050919050565b7f496e73756666696369656e74206b657973000000000000000000000000000000600082015250565b60006114c760118361120b565b91506114d282611491565b602082019050919050565b600060208201905081810360008301526114f6816114ba565b905091905056fea26469706673582212203250fa904d3dc11c206c2e8a4c22e21d09ae0fba2c840e4a9e56a7d0aebe2bd064736f6c63430008130033","opcodes":"PUSH1 0x80 PUSH1 0x40 MSTORE CALLVALUE DUP1 ISZERO PUSH2 0x10 JUMPI PUSH1 0x0 DUP1 REVERT JUMPDEST POP PUSH2 0x1533 DUP1 PUSH2 0x20 PUSH1 0x0 CODECOPY PUSH1 0x0 RETURN INVALID PUSH1 0x80 PUSH1 0x40 MSTORE PUSH1 0x4 CALLDATASIZE LT PUSH2 0x9C JUMPI PUSH1 0x0 CALLDATALOAD PUSH1 0xE0 SHR DUP1 PUSH4 0x7E0CF35B GT PUSH2 0x64 JUMPI DUP1 PUSH4 0x7E0CF35B EQ PUSH2 0x1D2 JUMPI DUP1 PUSH4 0x9111AC89 EQ PUSH2 0x1EE JUMPI DUP1 PUSH4 0x9AE71781 EQ PUSH2 0x20A JUMPI DUP1 PUSH4 0xE1CCD6E9 EQ PUSH2 0x247 JUMPI DUP1 PUSH4 0xF47F43FD EQ PUSH2 0x284 JUMPI DUP1 PUSH4 0xFAAEBD21 EQ PUSH2 0x2C1 JUMPI PUSH2 0x9C JUMP JUMPDEST DUP1 PUSH4 0xF026F6D EQ PUSH2 0xA1 JUMPI DUP1 PUSH4 0x2267A89C EQ PUSH2 0xDE JUMPI DUP1 PUSH4 0x227B3EA0 EQ PUSH2 0x11B JUMPI DUP1 PUSH4 0x4635256E EQ PUSH2 0x158 JUMPI DUP1 PUSH4 0x5CF4EE91 EQ PUSH2 0x195 JUMPI JUMPDEST PUSH1 0x0 DUP1 REVERT JUMPDEST CALLVALUE DUP1 ISZERO PUSH2 0xAD JUMPI PUSH1 0x0 DUP1 REVERT JUMPDEST POP PUSH2 0xC8 PUSH1 0x4 DUP1 CALLDATASIZE SUB DUP2 ADD SWAP1 PUSH2 0xC3 SWAP2 SWAP1 PUSH2 0xF91 JUMP JUMPDEST PUSH2 0x2FE JUMP JUMPDEST PUSH1 0x40 MLOAD PUSH2 0xD5 SWAP2 SWAP1 PUSH2 0xFE0 JUMP JUMPDEST PUSH1 0x40 MLOAD DUP1 SWAP2 SUB SWAP1 RETURN JUMPDEST CALLVALUE DUP1 ISZERO PUSH2 0xEA JUMPI PUSH1 0x0 DUP1 REVERT JUMPDEST POP PUSH2 0x105 PUSH1 0x4 DUP1 CALLDATASIZE SUB DUP2 ADD SWAP1 PUSH2 0x100 SWAP2 SWAP1 PUSH2 0xF91 JUMP JUMPDEST PUSH2 0x38B JUMP JUMPDEST PUSH1 0x40 MLOAD PUSH2 0x112 SWAP2 SWAP1 PUSH2 0xFE0 JUMP JUMPDEST PUSH1 0x40 MLOAD DUP1 SWAP2 SUB SWAP1 RETURN JUMPDEST CALLVALUE DUP1 ISZERO PUSH2 0x127 JUMPI PUSH1 0x0 DUP1 REVERT JUMPDEST POP PUSH2 0x142 PUSH1 0x4 DUP1 CALLDATASIZE SUB DUP2 ADD SWAP1 PUSH2 0x13D SWAP2 SWAP1 PUSH2 0xFFB JUMP JUMPDEST PUSH2 0x418 JUMP JUMPDEST PUSH1 0x40 MLOAD PUSH2 0x14F SWAP2 SWAP1 PUSH2 0xFE0 JUMP JUMPDEST PUSH1 0x40 MLOAD DUP1 SWAP2 SUB SWAP1 RETURN JUMPDEST CALLVALUE DUP1 ISZERO PUSH2 0x164 JUMPI PUSH1 0x0 DUP1 REVERT JUMPDEST POP PUSH2 0x17F PUSH1 0x4 DUP1 CALLDATASIZE SUB DUP2 ADD SWAP1 PUSH2 0x17A SWAP2 SWAP1 PUSH2 0xF91 JUMP JUMPDEST PUSH2 0x43D JUMP JUMPDEST PUSH1 0x40 MLOAD PUSH2 0x18C SWAP2 SWAP1 PUSH2 0xFE0 JUMP JUMPDEST PUSH1 0x40 MLOAD DUP1 SWAP2 SUB SWAP1 RETURN JUMPDEST CALLVALUE DUP1 ISZERO PUSH2 0x1A1 JUMPI PUSH1 0x0 DUP1 REVERT JUMPDEST POP PUSH2 0x1BC PUSH1 0x4 DUP1 CALLDATASIZE SUB DUP2 ADD SWAP1 PUSH2 0x1B7 SWAP2 SWAP1 PUSH2 0x103B JUMP JUMPDEST PUSH2 0x490 JUMP JUMPDEST PUSH1 0x40 MLOAD PUSH2 0x1C9 SWAP2 SWAP1 PUSH2 0xFE0 JUMP JUMPDEST PUSH1 0x40 MLOAD DUP1 SWAP2 SUB SWAP1 RETURN JUMPDEST PUSH2 0x1EC PUSH1 0x4 DUP1 CALLDATASIZE SUB DUP2 ADD SWAP1 PUSH2 0x1E7 SWAP2 SWAP1 PUSH2 0xF91 JUMP JUMPDEST PUSH2 0x5C5 JUMP JUMPDEST STOP JUMPDEST PUSH2 0x208 PUSH1 0x4 DUP1 CALLDATASIZE SUB DUP2 ADD SWAP1 PUSH2 0x203 SWAP2 SWAP1 PUSH2 0xF91 JUMP JUMPDEST PUSH2 0x983 JUMP JUMPDEST STOP JUMPDEST CALLVALUE DUP1 ISZERO PUSH2 0x216 JUMPI PUSH1 0x0 DUP1 REVERT JUMPDEST POP PUSH2 0x231 PUSH1 0x4 DUP1 CALLDATASIZE SUB DUP2 ADD SWAP1 PUSH2 0x22C SWAP2 SWAP1 PUSH2 0xF91 JUMP JUMPDEST PUSH2 0xE37 JUMP JUMPDEST PUSH1 0x40 MLOAD PUSH2 0x23E SWAP2 SWAP1 PUSH2 0xFE0 JUMP JUMPDEST PUSH1 0x40 MLOAD DUP1 SWAP2 SUB SWAP1 RETURN JUMPDEST CALLVALUE DUP1 ISZERO PUSH2 0x253 JUMPI PUSH1 0x0 DUP1 REVERT JUMPDEST POP PUSH2 0x26E PUSH1 0x4 DUP1 CALLDATASIZE SUB DUP2 ADD SWAP1 PUSH2 0x269 SWAP2 SWAP1 PUSH2 0x107B JUMP JUMPDEST PUSH2 0xE95 JUMP JUMPDEST PUSH1 0x40 MLOAD PUSH2 0x27B SWAP2 SWAP1 PUSH2 0xFE0 JUMP JUMPDEST PUSH1 0x40 MLOAD DUP1 SWAP2 SUB SWAP1 RETURN JUMPDEST CALLVALUE DUP1 ISZERO PUSH2 0x290 JUMPI PUSH1 0x0 DUP1 REVERT JUMPDEST POP PUSH2 0x2AB PUSH1 0x4 DUP1 CALLDATASIZE SUB DUP2 ADD SWAP1 PUSH2 0x2A6 SWAP2 SWAP1 PUSH2 0x107B JUMP JUMPDEST PUSH2 0xEAD JUMP JUMPDEST PUSH1 0x40 MLOAD PUSH2 0x2B8 SWAP2 SWAP1 PUSH2 0x10B7 JUMP JUMPDEST PUSH1 0x40 MLOAD DUP1 SWAP2 SUB SWAP1 RETURN JUMPDEST CALLVALUE DUP1 ISZERO PUSH2 0x2CD JUMPI PUSH1 0x0 DUP1 REVERT JUMPDEST POP PUSH2 0x2E8 PUSH1 0x4 DUP1 CALLDATASIZE SUB DUP2 ADD SWAP1 PUSH2 0x2E3 SWAP2 SWAP1 PUSH2 0x107B JUMP JUMPDEST PUSH2 0xEE0 JUMP JUMPDEST PUSH1 0x40 MLOAD PUSH2 0x2F5 SWAP2 SWAP1 PUSH2 0xFE0 JUMP JUMPDEST PUSH1 0x40 MLOAD DUP1 SWAP2 SUB SWAP1 RETURN JUMPDEST PUSH1 0x0 DUP1 PUSH2 0x30B DUP5 DUP5 PUSH2 0x43D JUMP JUMPDEST SWAP1 POP PUSH1 0x0 PUSH1 0x2 PUSH1 0x0 DUP7 PUSH20 0xFFFFFFFFFFFFFFFFFFFFFFFFFFFFFFFFFFFFFFFF AND PUSH20 0xFFFFFFFFFFFFFFFFFFFFFFFFFFFFFFFFFFFFFFFF AND DUP2 MSTORE PUSH1 0x20 ADD SWAP1 DUP2 MSTORE PUSH1 0x20 ADD PUSH1 0x0 KECCAK256 SLOAD SWAP1 POP PUSH1 0x0 PUSH8 0xDE0B6B3A7640000 DUP3 DUP5 PUSH2 0x368 SWAP2 SWAP1 PUSH2 0x1101 JUMP JUMPDEST PUSH2 0x372 SWAP2 SWAP1 PUSH2 0x1172 JUMP JUMPDEST SWAP1 POP DUP1 DUP4 PUSH2 0x380 SWAP2 SWAP1 PUSH2 0x11A3 JUMP JUMPDEST SWAP4 POP POP POP POP SWAP3 SWAP2 POP POP JUMP JUMPDEST PUSH1 0x0 DUP1 PUSH2 0x398 DUP5 DUP5 PUSH2 0xE37 JUMP JUMPDEST SWAP1 POP PUSH1 0x0 PUSH1 0x2 PUSH1 0x0 DUP7 PUSH20 0xFFFFFFFFFFFFFFFFFFFFFFFFFFFFFFFFFFFFFFFF AND PUSH20 0xFFFFFFFFFFFFFFFFFFFFFFFFFFFFFFFFFFFFFFFF AND DUP2 MSTORE PUSH1 0x20 ADD SWAP1 DUP2 MSTORE PUSH1 0x20 ADD PUSH1 0x0 KECCAK256 SLOAD SWAP1 POP PUSH1 0x0 PUSH8 0xDE0B6B3A7640000 DUP3 DUP5 PUSH2 0x3F5 SWAP2 SWAP1 PUSH2 0x1101 JUMP JUMPDEST PUSH2 0x3FF SWAP2 SWAP1 PUSH2 0x1172 JUMP JUMPDEST SWAP1 POP DUP1 DUP4 PUSH2 0x40D SWAP2 SWAP1 PUSH2 0x11D7 JUMP JUMPDEST SWAP4 POP POP POP POP SWAP3 SWAP2 POP POP JUMP JUMPDEST PUSH1 0x0 PUSH1 0x20 MSTORE DUP2 PUSH1 0x0 MSTORE PUSH1 0x40 PUSH1 0x0 KECCAK256 PUSH1 0x20 MSTORE DUP1 PUSH1 0x0 MSTORE PUSH1 0x40 PUSH1 0x0 KECCAK256 PUSH1 0x0 SWAP2 POP SWAP2 POP POP SLOAD DUP2 JUMP JUMPDEST PUSH1 0x0 PUSH2 0x488 PUSH1 0x1 PUSH1 0x0 DUP6 PUSH20 0xFFFFFFFFFFFFFFFFFFFFFFFFFFFFFFFFFFFFFFFF AND PUSH20 0xFFFFFFFFFFFFFFFFFFFFFFFFFFFFFFFFFFFFFFFF AND DUP2 MSTORE PUSH1 0x20 ADD SWAP1 DUP2 MSTORE PUSH1 0x20 ADD PUSH1 0x0 KECCAK256 SLOAD DUP4 PUSH2 0x490 JUMP JUMPDEST SWAP1 POP SWAP3 SWAP2 POP POP JUMP JUMPDEST PUSH1 0x0 DUP1 PUSH1 0x0 DUP5 EQ PUSH2 0x4F2 JUMPI PUSH1 0x6 PUSH1 0x1 DUP1 DUP7 PUSH2 0x4AB SWAP2 SWAP1 PUSH2 0x11D7 JUMP JUMPDEST PUSH1 0x2 PUSH2 0x4B7 SWAP2 SWAP1 PUSH2 0x1101 JUMP JUMPDEST PUSH2 0x4C1 SWAP2 SWAP1 PUSH2 0x11A3 JUMP JUMPDEST DUP6 PUSH1 0x1 DUP8 PUSH2 0x4CF SWAP2 SWAP1 PUSH2 0x11D7 JUMP JUMPDEST PUSH2 0x4D9 SWAP2 SWAP1 PUSH2 0x1101 JUMP JUMPDEST PUSH2 0x4E3 SWAP2 SWAP1 PUSH2 0x1101 JUMP JUMPDEST PUSH2 0x4ED SWAP2 SWAP1 PUSH2 0x1172 JUMP JUMPDEST PUSH2 0x4F5 JUMP JUMPDEST PUSH1 0x0 JUMPDEST SWAP1 POP PUSH1 0x0 DUP1 DUP6 EQ DUP1 ISZERO PUSH2 0x508 JUMPI POP PUSH1 0x1 DUP5 EQ JUMPDEST PUSH2 0x584 JUMPI PUSH1 0x6 PUSH1 0x1 DUP1 DUP7 DUP9 PUSH2 0x51D SWAP2 SWAP1 PUSH2 0x11A3 JUMP JUMPDEST PUSH2 0x527 SWAP2 SWAP1 PUSH2 0x11D7 JUMP JUMPDEST PUSH1 0x2 PUSH2 0x533 SWAP2 SWAP1 PUSH2 0x1101 JUMP JUMPDEST PUSH2 0x53D SWAP2 SWAP1 PUSH2 0x11A3 JUMP JUMPDEST DUP6 DUP8 PUSH2 0x549 SWAP2 SWAP1 PUSH2 0x11A3 JUMP JUMPDEST PUSH1 0x1 DUP8 DUP10 PUSH2 0x557 SWAP2 SWAP1 PUSH2 0x11A3 JUMP JUMPDEST PUSH2 0x561 SWAP2 SWAP1 PUSH2 0x11D7 JUMP JUMPDEST PUSH2 0x56B SWAP2 SWAP1 PUSH2 0x1101 JUMP JUMPDEST PUSH2 0x575 SWAP2 SWAP1 PUSH2 0x1101 JUMP JUMPDEST PUSH2 0x57F SWAP2 SWAP1 PUSH2 0x1172 JUMP JUMPDEST PUSH2 0x587 JUMP JUMPDEST PUSH1 0x0 JUMPDEST SWAP1 POP PUSH1 0x0 DUP3 DUP3 PUSH2 0x597 SWAP2 SWAP1 PUSH2 0x11D7 JUMP JUMPDEST SWAP1 POP PUSH2 0x3E80 PUSH8 0xDE0B6B3A7640000 DUP3 PUSH2 0x5B0 SWAP2 SWAP1 PUSH2 0x1101 JUMP JUMPDEST PUSH2 0x5BA SWAP2 SWAP1 PUSH2 0x1172 JUMP JUMPDEST SWAP4 POP POP POP POP SWAP3 SWAP2 POP POP JUMP JUMPDEST PUSH1 0x0 PUSH1 0x1 PUSH1 0x0 DUP5 PUSH20 0xFFFFFFFFFFFFFFFFFFFFFFFFFFFFFFFFFFFFFFFF AND PUSH20 0xFFFFFFFFFFFFFFFFFFFFFFFFFFFFFFFFFFFFFFFF AND DUP2 MSTORE PUSH1 0x20 ADD SWAP1 DUP2 MSTORE PUSH1 0x20 ADD PUSH1 0x0 KECCAK256 SLOAD SWAP1 POP PUSH1 0x0 DUP2 SUB PUSH2 0x64C JUMPI PUSH1 0x40 MLOAD PUSH32 0x8C379A000000000000000000000000000000000000000000000000000000000 DUP2 MSTORE PUSH1 0x4 ADD PUSH2 0x643 SWAP1 PUSH2 0x1268 JUMP JUMPDEST PUSH1 0x40 MLOAD DUP1 SWAP2 SUB SWAP1 REVERT JUMPDEST PUSH1 0x0 PUSH2 0x658 DUP3 DUP5 PUSH2 0x490 JUMP JUMPDEST SWAP1 POP PUSH1 0x0 PUSH1 0x2 PUSH1 0x0 DUP7 PUSH20 0xFFFFFFFFFFFFFFFFFFFFFFFFFFFFFFFFFFFFFFFF AND PUSH20 0xFFFFFFFFFFFFFFFFFFFFFFFFFFFFFFFFFFFFFFFF AND DUP2 MSTORE PUSH1 0x20 ADD SWAP1 DUP2 MSTORE PUSH1 0x20 ADD PUSH1 0x0 KECCAK256 SLOAD SWAP1 POP PUSH1 0x0 PUSH8 0xDE0B6B3A7640000 DUP3 DUP5 PUSH2 0x6B5 SWAP2 SWAP1 PUSH2 0x1101 JUMP JUMPDEST PUSH2 0x6BF SWAP2 SWAP1 PUSH2 0x1172 JUMP JUMPDEST SWAP1 POP DUP1 DUP4 PUSH2 0x6CD SWAP2 SWAP1 PUSH2 0x11A3 JUMP JUMPDEST CALLVALUE LT ISZERO PUSH2 0x70F JUMPI PUSH1 0x40 MLOAD PUSH32 0x8C379A000000000000000000000000000000000000000000000000000000000 DUP2 MSTORE PUSH1 0x4 ADD PUSH2 0x706 SWAP1 PUSH2 0x12D4 JUMP JUMPDEST PUSH1 0x40 MLOAD DUP1 SWAP2 SUB SWAP1 REVERT JUMPDEST PUSH1 0x0 DUP1 DUP8 PUSH20 0xFFFFFFFFFFFFFFFFFFFFFFFFFFFFFFFFFFFFFFFF AND PUSH20 0xFFFFFFFFFFFFFFFFFFFFFFFFFFFFFFFFFFFFFFFF AND DUP2 MSTORE PUSH1 0x20 ADD SWAP1 DUP2 MSTORE PUSH1 0x20 ADD PUSH1 0x0 KECCAK256 PUSH1 0x0 CALLER PUSH20 0xFFFFFFFFFFFFFFFFFFFFFFFFFFFFFFFFFFFFFFFF AND PUSH20 0xFFFFFFFFFFFFFFFFFFFFFFFFFFFFFFFFFFFFFFFF AND DUP2 MSTORE PUSH1 0x20 ADD SWAP1 DUP2 MSTORE PUSH1 0x20 ADD PUSH1 0x0 KECCAK256 PUSH1 0x0 DUP2 SLOAD DUP1 SWAP3 SWAP2 SWAP1 PUSH2 0x79B SWAP1 PUSH2 0x12F4 JUMP JUMPDEST SWAP2 SWAP1 POP SSTORE POP PUSH1 0x1 PUSH1 0x0 DUP8 PUSH20 0xFFFFFFFFFFFFFFFFFFFFFFFFFFFFFFFFFFFFFFFF AND PUSH20 0xFFFFFFFFFFFFFFFFFFFFFFFFFFFFFFFFFFFFFFFF AND DUP2 MSTORE PUSH1 0x20 ADD SWAP1 DUP2 MSTORE PUSH1 0x20 ADD PUSH1 0x0 KECCAK256 PUSH1 0x0 DUP2 SLOAD DUP1 SWAP3 SWAP2 SWAP1 PUSH2 0x7F0 SWAP1 PUSH2 0x12F4 JUMP JUMPDEST SWAP2 SWAP1 POP SSTORE POP CALLER PUSH20 0xFFFFFFFFFFFFFFFFFFFFFFFFFFFFFFFFFFFFFFFF AND DUP7 PUSH20 0xFFFFFFFFFFFFFFFFFFFFFFFFFFFFFFFFFFFFFFFF AND PUSH32 0x4B38D3E57AEB26FB68E074CB2F26FAE57D4951F6B9AC4B7CEA10FF2D1777A22A DUP8 DUP5 DUP8 PUSH2 0x851 SWAP2 SWAP1 PUSH2 0x11A3 JUMP JUMPDEST DUP6 PUSH1 0x40 MLOAD PUSH2 0x861 SWAP4 SWAP3 SWAP2 SWAP1 PUSH2 0x133C JUMP JUMPDEST PUSH1 0x40 MLOAD DUP1 SWAP2 SUB SWAP1 LOG3 PUSH1 0x0 PUSH1 0x3 PUSH1 0x0 DUP9 PUSH20 0xFFFFFFFFFFFFFFFFFFFFFFFFFFFFFFFFFFFFFFFF AND PUSH20 0xFFFFFFFFFFFFFFFFFFFFFFFFFFFFFFFFFFFFFFFF AND DUP2 MSTORE PUSH1 0x20 ADD SWAP1 DUP2 MSTORE PUSH1 0x20 ADD PUSH1 0x0 KECCAK256 PUSH1 0x0 SWAP1 SLOAD SWAP1 PUSH2 0x100 EXP SWAP1 DIV PUSH20 0xFFFFFFFFFFFFFFFFFFFFFFFFFFFFFFFFFFFFFFFF AND SWAP1 POP PUSH1 0x0 DUP2 PUSH20 0xFFFFFFFFFFFFFFFFFFFFFFFFFFFFFFFFFFFFFFFF AND DUP4 PUSH1 0x40 MLOAD PUSH2 0x8F3 SWAP1 PUSH2 0x13A4 JUMP JUMPDEST PUSH1 0x0 PUSH1 0x40 MLOAD DUP1 DUP4 SUB DUP2 DUP6 DUP8 GAS CALL SWAP3 POP POP POP RETURNDATASIZE DUP1 PUSH1 0x0 DUP2 EQ PUSH2 0x930 JUMPI PUSH1 0x40 MLOAD SWAP2 POP PUSH1 0x1F NOT PUSH1 0x3F RETURNDATASIZE ADD AND DUP3 ADD PUSH1 0x40 MSTORE RETURNDATASIZE DUP3 MSTORE RETURNDATASIZE PUSH1 0x0 PUSH1 0x20 DUP5 ADD RETURNDATACOPY PUSH2 0x935 JUMP JUMPDEST PUSH1 0x60 SWAP2 POP JUMPDEST POP POP SWAP1 POP DUP1 PUSH2 0x979 JUMPI PUSH1 0x40 MLOAD PUSH32 0x8C379A000000000000000000000000000000000000000000000000000000000 DUP2 MSTORE PUSH1 0x4 ADD PUSH2 0x970 SWAP1 PUSH2 0x1405 JUMP JUMPDEST PUSH1 0x40 MLOAD DUP1 SWAP2 SUB SWAP1 REVERT JUMPDEST POP POP POP POP POP POP POP POP JUMP JUMPDEST PUSH1 0x0 PUSH1 0x1 PUSH1 0x0 DUP5 PUSH20 0xFFFFFFFFFFFFFFFFFFFFFFFFFFFFFFFFFFFFFFFF AND PUSH20 0xFFFFFFFFFFFFFFFFFFFFFFFFFFFFFFFFFFFFFFFF AND DUP2 MSTORE PUSH1 0x20 ADD SWAP1 DUP2 MSTORE PUSH1 0x20 ADD PUSH1 0x0 KECCAK256 SLOAD SWAP1 POP DUP2 DUP2 GT PUSH2 0xA09 JUMPI PUSH1 0x40 MLOAD PUSH32 0x8C379A000000000000000000000000000000000000000000000000000000000 DUP2 MSTORE PUSH1 0x4 ADD PUSH2 0xA00 SWAP1 PUSH2 0x1471 JUMP JUMPDEST PUSH1 0x40 MLOAD DUP1 SWAP2 SUB SWAP1 REVERT JUMPDEST DUP2 PUSH1 0x0 DUP1 DUP6 PUSH20 0xFFFFFFFFFFFFFFFFFFFFFFFFFFFFFFFFFFFFFFFF AND PUSH20 0xFFFFFFFFFFFFFFFFFFFFFFFFFFFFFFFFFFFFFFFF AND DUP2 MSTORE PUSH1 0x20 ADD SWAP1 DUP2 MSTORE PUSH1 0x20 ADD PUSH1 0x0 KECCAK256 PUSH1 0x0 CALLER PUSH20 0xFFFFFFFFFFFFFFFFFFFFFFFFFFFFFFFFFFFFFFFF AND PUSH20 0xFFFFFFFFFFFFFFFFFFFFFFFFFFFFFFFFFFFFFFFF AND DUP2 MSTORE PUSH1 0x20 ADD SWAP1 DUP2 MSTORE PUSH1 0x20 ADD PUSH1 0x0 KECCAK256 SLOAD LT ISZERO PUSH2 0xAC7 JUMPI PUSH1 0x40 MLOAD PUSH32 0x8C379A000000000000000000000000000000000000000000000000000000000 DUP2 MSTORE PUSH1 0x4 ADD PUSH2 0xABE SWAP1 PUSH2 0x14DD JUMP JUMPDEST PUSH1 0x40 MLOAD DUP1 SWAP2 SUB SWAP1 REVERT JUMPDEST PUSH1 0x0 PUSH2 0xADE DUP4 DUP4 PUSH2 0xAD8 SWAP2 SWAP1 PUSH2 0x11D7 JUMP JUMPDEST DUP5 PUSH2 0x490 JUMP JUMPDEST SWAP1 POP PUSH1 0x0 PUSH1 0x2 PUSH1 0x0 DUP7 PUSH20 0xFFFFFFFFFFFFFFFFFFFFFFFFFFFFFFFFFFFFFFFF AND PUSH20 0xFFFFFFFFFFFFFFFFFFFFFFFFFFFFFFFFFFFFFFFF AND DUP2 MSTORE PUSH1 0x20 ADD SWAP1 DUP2 MSTORE PUSH1 0x20 ADD PUSH1 0x0 KECCAK256 SLOAD SWAP1 POP PUSH1 0x0 PUSH8 0xDE0B6B3A7640000 DUP3 DUP5 PUSH2 0xB3B SWAP2 SWAP1 PUSH2 0x1101 JUMP JUMPDEST PUSH2 0xB45 SWAP2 SWAP1 PUSH2 0x1172 JUMP JUMPDEST SWAP1 POP DUP5 PUSH1 0x0 DUP1 DUP9 PUSH20 0xFFFFFFFFFFFFFFFFFFFFFFFFFFFFFFFFFFFFFFFF AND PUSH20 0xFFFFFFFFFFFFFFFFFFFFFFFFFFFFFFFFFFFFFFFF AND DUP2 MSTORE PUSH1 0x20 ADD SWAP1 DUP2 MSTORE PUSH1 0x20 ADD PUSH1 0x0 KECCAK256 PUSH1 0x0 CALLER PUSH20 0xFFFFFFFFFFFFFFFFFFFFFFFFFFFFFFFFFFFFFFFF AND PUSH20 0xFFFFFFFFFFFFFFFFFFFFFFFFFFFFFFFFFFFFFFFF AND DUP2 MSTORE PUSH1 0x20 ADD SWAP1 DUP2 MSTORE PUSH1 0x20 ADD PUSH1 0x0 KECCAK256 PUSH1 0x0 DUP3 DUP3 SLOAD PUSH2 0xBD2 SWAP2 SWAP1 PUSH2 0x11D7 JUMP JUMPDEST SWAP3 POP POP DUP2 SWAP1 SSTORE POP DUP5 DUP5 PUSH2 0xBE5 SWAP2 SWAP1 PUSH2 0x11D7 JUMP JUMPDEST PUSH1 0x1 PUSH1 0x0 DUP9 PUSH20 0xFFFFFFFFFFFFFFFFFFFFFFFFFFFFFFFFFFFFFFFF AND PUSH20 0xFFFFFFFFFFFFFFFFFFFFFFFFFFFFFFFFFFFFFFFF AND DUP2 MSTORE PUSH1 0x20 ADD SWAP1 DUP2 MSTORE PUSH1 0x20 ADD PUSH1 0x0 KECCAK256 DUP2 SWAP1 SSTORE POP CALLER PUSH20 0xFFFFFFFFFFFFFFFFFFFFFFFFFFFFFFFFFFFFFFFF AND DUP7 PUSH20 0xFFFFFFFFFFFFFFFFFFFFFFFFFFFFFFFFFFFFFFFF AND PUSH32 0x2A9584634285EAB5EC1EF849F5ABC0D8E8BF8467F580028E0CBCA125B7D7C0FC DUP8 DUP5 DUP8 PUSH2 0xC84 SWAP2 SWAP1 PUSH2 0x11D7 JUMP JUMPDEST DUP6 PUSH1 0x40 MLOAD PUSH2 0xC94 SWAP4 SWAP3 SWAP2 SWAP1 PUSH2 0x133C JUMP JUMPDEST PUSH1 0x40 MLOAD DUP1 SWAP2 SUB SWAP1 LOG3 PUSH1 0x0 PUSH1 0x3 PUSH1 0x0 DUP9 PUSH20 0xFFFFFFFFFFFFFFFFFFFFFFFFFFFFFFFFFFFFFFFF AND PUSH20 0xFFFFFFFFFFFFFFFFFFFFFFFFFFFFFFFFFFFFFFFF AND DUP2 MSTORE PUSH1 0x20 ADD SWAP1 DUP2 MSTORE PUSH1 0x20 ADD PUSH1 0x0 KECCAK256 PUSH1 0x0 SWAP1 SLOAD SWAP1 PUSH2 0x100 EXP SWAP1 DIV PUSH20 0xFFFFFFFFFFFFFFFFFFFFFFFFFFFFFFFFFFFFFFFF AND SWAP1 POP PUSH1 0x0 CALLER PUSH20 0xFFFFFFFFFFFFFFFFFFFFFFFFFFFFFFFFFFFFFFFF AND DUP4 DUP7 PUSH2 0xD25 SWAP2 SWAP1 PUSH2 0x11D7 JUMP JUMPDEST PUSH1 0x40 MLOAD PUSH2 0xD31 SWAP1 PUSH2 0x13A4 JUMP JUMPDEST PUSH1 0x0 PUSH1 0x40 MLOAD DUP1 DUP4 SUB DUP2 DUP6 DUP8 GAS CALL SWAP3 POP POP POP RETURNDATASIZE DUP1 PUSH1 0x0 DUP2 EQ PUSH2 0xD6E JUMPI PUSH1 0x40 MLOAD SWAP2 POP PUSH1 0x1F NOT PUSH1 0x3F RETURNDATASIZE ADD AND DUP3 ADD PUSH1 0x40 MSTORE RETURNDATASIZE DUP3 MSTORE RETURNDATASIZE PUSH1 0x0 PUSH1 0x20 DUP5 ADD RETURNDATACOPY PUSH2 0xD73 JUMP JUMPDEST PUSH1 0x60 SWAP2 POP JUMPDEST POP POP SWAP1 POP PUSH1 0x0 DUP3 PUSH20 0xFFFFFFFFFFFFFFFFFFFFFFFFFFFFFFFFFFFFFFFF AND DUP5 PUSH1 0x40 MLOAD PUSH2 0xD9D SWAP1 PUSH2 0x13A4 JUMP JUMPDEST PUSH1 0x0 PUSH1 0x40 MLOAD DUP1 DUP4 SUB DUP2 DUP6 DUP8 GAS CALL SWAP3 POP POP POP RETURNDATASIZE DUP1 PUSH1 0x0 DUP2 EQ PUSH2 0xDDA JUMPI PUSH1 0x40 MLOAD SWAP2 POP PUSH1 0x1F NOT PUSH1 0x3F RETURNDATASIZE ADD AND DUP3 ADD PUSH1 0x40 MSTORE RETURNDATASIZE DUP3 MSTORE RETURNDATASIZE PUSH1 0x0 PUSH1 0x20 DUP5 ADD RETURNDATACOPY PUSH2 0xDDF JUMP JUMPDEST PUSH1 0x60 SWAP2 POP JUMPDEST POP POP SWAP1 POP DUP2 DUP1 ISZERO PUSH2 0xDED JUMPI POP DUP1 JUMPDEST PUSH2 0xE2C JUMPI PUSH1 0x40 MLOAD PUSH32 0x8C379A000000000000000000000000000000000000000000000000000000000 DUP2 MSTORE PUSH1 0x4 ADD PUSH2 0xE23 SWAP1 PUSH2 0x1405 JUMP JUMPDEST PUSH1 0x40 MLOAD DUP1 SWAP2 SUB SWAP1 REVERT JUMPDEST POP POP POP POP POP POP POP POP POP JUMP JUMPDEST PUSH1 0x0 PUSH2 0xE8D DUP3 PUSH1 0x1 PUSH1 0x0 DUP7 PUSH20 0xFFFFFFFFFFFFFFFFFFFFFFFFFFFFFFFFFFFFFFFF AND PUSH20 0xFFFFFFFFFFFFFFFFFFFFFFFFFFFFFFFFFFFFFFFF AND DUP2 MSTORE PUSH1 0x20 ADD SWAP1 DUP2 MSTORE PUSH1 0x20 ADD PUSH1 0x0 KECCAK256 SLOAD PUSH2 0xE87 SWAP2 SWAP1 PUSH2 0x11D7 JUMP JUMPDEST DUP4 PUSH2 0x490 JUMP JUMPDEST SWAP1 POP SWAP3 SWAP2 POP POP JUMP JUMPDEST PUSH1 0x1 PUSH1 0x20 MSTORE DUP1 PUSH1 0x0 MSTORE PUSH1 0x40 PUSH1 0x0 KECCAK256 PUSH1 0x0 SWAP2 POP SWAP1 POP SLOAD DUP2 JUMP JUMPDEST PUSH1 0x3 PUSH1 0x20 MSTORE DUP1 PUSH1 0x0 MSTORE PUSH1 0x40 PUSH1 0x0 KECCAK256 PUSH1 0x0 SWAP2 POP SLOAD SWAP1 PUSH2 0x100 EXP SWAP1 DIV PUSH20 0xFFFFFFFFFFFFFFFFFFFFFFFFFFFFFFFFFFFFFFFF AND DUP2 JUMP JUMPDEST PUSH1 0x2 PUSH1 0x20 MSTORE DUP1 PUSH1 0x0 MSTORE PUSH1 0x40 PUSH1 0x0 KECCAK256 PUSH1 0x0 SWAP2 POP SWAP1 POP SLOAD DUP2 JUMP JUMPDEST PUSH1 0x0 DUP1 REVERT JUMPDEST PUSH1 0x0 PUSH20 0xFFFFFFFFFFFFFFFFFFFFFFFFFFFFFFFFFFFFFFFF DUP3 AND SWAP1 POP SWAP2 SWAP1 POP JUMP JUMPDEST PUSH1 0x0 PUSH2 0xF28 DUP3 PUSH2 0xEFD JUMP JUMPDEST SWAP1 POP SWAP2 SWAP1 POP JUMP JUMPDEST PUSH2 0xF38 DUP2 PUSH2 0xF1D JUMP JUMPDEST DUP2 EQ PUSH2 0xF43 JUMPI PUSH1 0x0 DUP1 REVERT JUMPDEST POP JUMP JUMPDEST PUSH1 0x0 DUP2 CALLDATALOAD SWAP1 POP PUSH2 0xF55 DUP2 PUSH2 0xF2F JUMP JUMPDEST SWAP3 SWAP2 POP POP JUMP JUMPDEST PUSH1 0x0 DUP2 SWAP1 POP SWAP2 SWAP1 POP JUMP JUMPDEST PUSH2 0xF6E DUP2 PUSH2 0xF5B JUMP JUMPDEST DUP2 EQ PUSH2 0xF79 JUMPI PUSH1 0x0 DUP1 REVERT JUMPDEST POP JUMP JUMPDEST PUSH1 0x0 DUP2 CALLDATALOAD SWAP1 POP PUSH2 0xF8B DUP2 PUSH2 0xF65 JUMP JUMPDEST SWAP3 SWAP2 POP POP JUMP JUMPDEST PUSH1 0x0 DUP1 PUSH1 0x40 DUP4 DUP6 SUB SLT ISZERO PUSH2 0xFA8 JUMPI PUSH2 0xFA7 PUSH2 0xEF8 JUMP JUMPDEST JUMPDEST PUSH1 0x0 PUSH2 0xFB6 DUP6 DUP3 DUP7 ADD PUSH2 0xF46 JUMP JUMPDEST SWAP3 POP POP PUSH1 0x20 PUSH2 0xFC7 DUP6 DUP3 DUP7 ADD PUSH2 0xF7C JUMP JUMPDEST SWAP2 POP POP SWAP3 POP SWAP3 SWAP1 POP JUMP JUMPDEST PUSH2 0xFDA DUP2 PUSH2 0xF5B JUMP JUMPDEST DUP3 MSTORE POP POP JUMP JUMPDEST PUSH1 0x0 PUSH1 0x20 DUP3 ADD SWAP1 POP PUSH2 0xFF5 PUSH1 0x0 DUP4 ADD DUP5 PUSH2 0xFD1 JUMP JUMPDEST SWAP3 SWAP2 POP POP JUMP JUMPDEST PUSH1 0x0 DUP1 PUSH1 0x40 DUP4 DUP6 SUB SLT ISZERO PUSH2 0x1012 JUMPI PUSH2 0x1011 PUSH2 0xEF8 JUMP JUMPDEST JUMPDEST PUSH1 0x0 PUSH2 0x1020 DUP6 DUP3 DUP7 ADD PUSH2 0xF46 JUMP JUMPDEST SWAP3 POP POP PUSH1 0x20 PUSH2 0x1031 DUP6 DUP3 DUP7 ADD PUSH2 0xF46 JUMP JUMPDEST SWAP2 POP POP SWAP3 POP SWAP3 SWAP1 POP JUMP JUMPDEST PUSH1 0x0 DUP1 PUSH1 0x40 DUP4 DUP6 SUB SLT ISZERO PUSH2 0x1052 JUMPI PUSH2 0x1051 PUSH2 0xEF8 JUMP JUMPDEST JUMPDEST PUSH1 0x0 PUSH2 0x1060 DUP6 DUP3 DUP7 ADD PUSH2 0xF7C JUMP JUMPDEST SWAP3 POP POP PUSH1 0x20 PUSH2 0x1071 DUP6 DUP3 DUP7 ADD PUSH2 0xF7C JUMP JUMPDEST SWAP2 POP POP SWAP3 POP SWAP3 SWAP1 POP JUMP JUMPDEST PUSH1 0x0 PUSH1 0x20 DUP3 DUP5 SUB SLT ISZERO PUSH2 0x1091 JUMPI PUSH2 0x1090 PUSH2 0xEF8 JUMP JUMPDEST JUMPDEST PUSH1 0x0 PUSH2 0x109F DUP5 DUP3 DUP6 ADD PUSH2 0xF46 JUMP JUMPDEST SWAP2 POP POP SWAP3 SWAP2 POP POP JUMP JUMPDEST PUSH2 0x10B1 DUP2 PUSH2 0xF1D JUMP JUMPDEST DUP3 MSTORE POP POP JUMP JUMPDEST PUSH1 0x0 PUSH1 0x20 DUP3 ADD SWAP1 POP PUSH2 0x10CC PUSH1 0x0 DUP4 ADD DUP5 PUSH2 0x10A8 JUMP JUMPDEST SWAP3 SWAP2 POP POP JUMP JUMPDEST PUSH32 0x4E487B7100000000000000000000000000000000000000000000000000000000 PUSH1 0x0 MSTORE PUSH1 0x11 PUSH1 0x4 MSTORE PUSH1 0x24 PUSH1 0x0 REVERT JUMPDEST PUSH1 0x0 PUSH2 0x110C DUP3 PUSH2 0xF5B JUMP JUMPDEST SWAP2 POP PUSH2 0x1117 DUP4 PUSH2 0xF5B JUMP JUMPDEST SWAP3 POP DUP3 DUP3 MUL PUSH2 0x1125 DUP2 PUSH2 0xF5B JUMP JUMPDEST SWAP2 POP DUP3 DUP3 DIV DUP5 EQ DUP4 ISZERO OR PUSH2 0x113C JUMPI PUSH2 0x113B PUSH2 0x10D2 JUMP JUMPDEST JUMPDEST POP SWAP3 SWAP2 POP POP JUMP JUMPDEST PUSH32 0x4E487B7100000000000000000000000000000000000000000000000000000000 PUSH1 0x0 MSTORE PUSH1 0x12 PUSH1 0x4 MSTORE PUSH1 0x24 PUSH1 0x0 REVERT JUMPDEST PUSH1 0x0 PUSH2 0x117D DUP3 PUSH2 0xF5B JUMP JUMPDEST SWAP2 POP PUSH2 0x1188 DUP4 PUSH2 0xF5B JUMP JUMPDEST SWAP3 POP DUP3 PUSH2 0x1198 JUMPI PUSH2 0x1197 PUSH2 0x1143 JUMP JUMPDEST JUMPDEST DUP3 DUP3 DIV SWAP1 POP SWAP3 SWAP2 POP POP JUMP JUMPDEST PUSH1 0x0 PUSH2 0x11AE DUP3 PUSH2 0xF5B JUMP JUMPDEST SWAP2 POP PUSH2 0x11B9 DUP4 PUSH2 0xF5B JUMP JUMPDEST SWAP3 POP DUP3 DUP3 ADD SWAP1 POP DUP1 DUP3 GT ISZERO PUSH2 0x11D1 JUMPI PUSH2 0x11D0 PUSH2 0x10D2 JUMP JUMPDEST JUMPDEST SWAP3 SWAP2 POP POP JUMP JUMPDEST PUSH1 0x0 PUSH2 0x11E2 DUP3 PUSH2 0xF5B JUMP JUMPDEST SWAP2 POP PUSH2 0x11ED DUP4 PUSH2 0xF5B JUMP JUMPDEST SWAP3 POP DUP3 DUP3 SUB SWAP1 POP DUP2 DUP2 GT ISZERO PUSH2 0x1205 JUMPI PUSH2 0x1204 PUSH2 0x10D2 JUMP JUMPDEST JUMPDEST SWAP3 SWAP2 POP POP JUMP JUMPDEST PUSH1 0x0 DUP3 DUP3 MSTORE PUSH1 0x20 DUP3 ADD SWAP1 POP SWAP3 SWAP2 POP POP JUMP JUMPDEST PUSH32 0x436F6D6D756E69747920646F6573206E6F742065786973742079657400000000 PUSH1 0x0 DUP3 ADD MSTORE POP JUMP JUMPDEST PUSH1 0x0 PUSH2 0x1252 PUSH1 0x1C DUP4 PUSH2 0x120B JUMP JUMPDEST SWAP2 POP PUSH2 0x125D DUP3 PUSH2 0x121C JUMP JUMPDEST PUSH1 0x20 DUP3 ADD SWAP1 POP SWAP2 SWAP1 POP JUMP JUMPDEST PUSH1 0x0 PUSH1 0x20 DUP3 ADD SWAP1 POP DUP2 DUP2 SUB PUSH1 0x0 DUP4 ADD MSTORE PUSH2 0x1281 DUP2 PUSH2 0x1245 JUMP JUMPDEST SWAP1 POP SWAP2 SWAP1 POP JUMP JUMPDEST PUSH32 0x496E73756666696369656E74207061796D656E74000000000000000000000000 PUSH1 0x0 DUP3 ADD MSTORE POP JUMP JUMPDEST PUSH1 0x0 PUSH2 0x12BE PUSH1 0x14 DUP4 PUSH2 0x120B JUMP JUMPDEST SWAP2 POP PUSH2 0x12C9 DUP3 PUSH2 0x1288 JUMP JUMPDEST PUSH1 0x20 DUP3 ADD SWAP1 POP SWAP2 SWAP1 POP JUMP JUMPDEST PUSH1 0x0 PUSH1 0x20 DUP3 ADD SWAP1 POP DUP2 DUP2 SUB PUSH1 0x0 DUP4 ADD MSTORE PUSH2 0x12ED DUP2 PUSH2 0x12B1 JUMP JUMPDEST SWAP1 POP SWAP2 SWAP1 POP JUMP JUMPDEST PUSH1 0x0 PUSH2 0x12FF DUP3 PUSH2 0xF5B JUMP JUMPDEST SWAP2 POP PUSH32 0xFFFFFFFFFFFFFFFFFFFFFFFFFFFFFFFFFFFFFFFFFFFFFFFFFFFFFFFFFFFFFFFF DUP3 SUB PUSH2 0x1331 JUMPI PUSH2 0x1330 PUSH2 0x10D2 JUMP JUMPDEST JUMPDEST PUSH1 0x1 DUP3 ADD SWAP1 POP SWAP2 SWAP1 POP JUMP JUMPDEST PUSH1 0x0 PUSH1 0x60 DUP3 ADD SWAP1 POP PUSH2 0x1351 PUSH1 0x0 DUP4 ADD DUP7 PUSH2 0xFD1 JUMP JUMPDEST PUSH2 0x135E PUSH1 0x20 DUP4 ADD DUP6 PUSH2 0xFD1 JUMP JUMPDEST PUSH2 0x136B PUSH1 0x40 DUP4 ADD DUP5 PUSH2 0xFD1 JUMP JUMPDEST SWAP5 SWAP4 POP POP POP POP JUMP JUMPDEST PUSH1 0x0 DUP2 SWAP1 POP SWAP3 SWAP2 POP POP JUMP JUMPDEST POP JUMP JUMPDEST PUSH1 0x0 PUSH2 0x138E PUSH1 0x0 DUP4 PUSH2 0x1373 JUMP JUMPDEST SWAP2 POP PUSH2 0x1399 DUP3 PUSH2 0x137E JUMP JUMPDEST PUSH1 0x0 DUP3 ADD SWAP1 POP SWAP2 SWAP1 POP JUMP JUMPDEST PUSH1 0x0 PUSH2 0x13AF DUP3 PUSH2 0x1381 JUMP JUMPDEST SWAP2 POP DUP2 SWAP1 POP SWAP2 SWAP1 POP JUMP JUMPDEST PUSH32 0x46756E6473207472616E73666572206661696C65640000000000000000000000 PUSH1 0x0 DUP3 ADD MSTORE POP JUMP JUMPDEST PUSH1 0x0 PUSH2 0x13EF PUSH1 0x15 DUP4 PUSH2 0x120B JUMP JUMPDEST SWAP2 POP PUSH2 0x13FA DUP3 PUSH2 0x13B9 JUMP JUMPDEST PUSH1 0x20 DUP3 ADD SWAP1 POP SWAP2 SWAP1 POP JUMP JUMPDEST PUSH1 0x0 PUSH1 0x20 DUP3 ADD SWAP1 POP DUP2 DUP2 SUB PUSH1 0x0 DUP4 ADD MSTORE PUSH2 0x141E DUP2 PUSH2 0x13E2 JUMP JUMPDEST SWAP1 POP SWAP2 SWAP1 POP JUMP JUMPDEST PUSH32 0x43616E6E6F742073656C6C206C617374206B6579000000000000000000000000 PUSH1 0x0 DUP3 ADD MSTORE POP JUMP JUMPDEST PUSH1 0x0 PUSH2 0x145B PUSH1 0x14 DUP4 PUSH2 0x120B JUMP JUMPDEST SWAP2 POP PUSH2 0x1466 DUP3 PUSH2 0x1425 JUMP JUMPDEST PUSH1 0x20 DUP3 ADD SWAP1 POP SWAP2 SWAP1 POP JUMP JUMPDEST PUSH1 0x0 PUSH1 0x20 DUP3 ADD SWAP1 POP DUP2 DUP2 SUB PUSH1 0x0 DUP4 ADD MSTORE PUSH2 0x148A DUP2 PUSH2 0x144E JUMP JUMPDEST SWAP1 POP SWAP2 SWAP1 POP JUMP JUMPDEST PUSH32 0x496E73756666696369656E74206B657973000000000000000000000000000000 PUSH1 0x0 DUP3 ADD MSTORE POP JUMP JUMPDEST PUSH1 0x0 PUSH2 0x14C7 PUSH1 0x11 DUP4 PUSH2 0x120B JUMP JUMPDEST SWAP2 POP PUSH2 0x14D2 DUP3 PUSH2 0x1491 JUMP JUMPDEST PUSH1 0x20 DUP3 ADD SWAP1 POP SWAP2 SWAP1 POP JUMP JUMPDEST PUSH1 0x0 PUSH1 0x20 DUP3 ADD SWAP1 POP DUP2 DUP2 SUB PUSH1 0x0 DUP4 ADD MSTORE PUSH2 0x14F6 DUP2 PUSH2 0x14BA JUMP JUMPDEST SWAP1 POP SWAP2 SWAP1 POP JUMP INVALID LOG2 PUSH5 0x6970667358 0x22 SLT KECCAK256 ORIGIN POP STATICCALL SWAP1 0x4D RETURNDATASIZE 0xC1 SHR KECCAK256 PUSH13 0x2E8A4C22E21D09AE0FBA2C840E 0x4A SWAP15 JUMP 0xA7 0xD0 0xAE 0xBE 0x2B 0xD0 PUSH5 0x736F6C6343 STOP ADDMOD SGT STOP CALLER "},"methodIdentifiers":{"buyKey(address,uint256)":"7e0cf35b","communityKeys(address,address)":"227b3ea0","communityKeysSupply(address)":"e1ccd6e9","fees(address)":"faaebd21","getBuyPrice(address,uint256)":"4635256e","getBuyPriceAfterFee(address,uint256)":"0f026f6d","getPrice(uint256,uint256)":"5cf4ee91","getSellPrice(address,uint256)":"9ae71781","getSellPriceAfterFee(address,uint256)":"2267a89c","safes(address)":"f47f43fd","sellKeys(address,uint256)":"9111ac89"}}}}}